:02000002D0002C
:1040000000400D0000660D00000006000C000501D8
:08401000040115050000000089
:10401800F4610D0009480A49884208B505D0094AE3
:10402800824202D0121A02F066F80748074A0021B5
:10403800121A02F086F8014808BD00BF40E30320C9
:1040480070650D00A8E30320A8E30320F0E7032030
:1040580070B501F0A5FE074C074BE41AA40800252B
:104068001E46A54204D056F8253098470135F8E792
:1040780070BD00BF68650D002C650D0000F06AB8C2
:1040880008B500F012F8BDE8084001F057BE00F08E
:104098004FBA00F055BA00F053BA0078B0FA80F081
:1040A800400970470123037070477047F0B595B019
:1040B800FF238DF80C308DF80D3055238DF80E3018
:1040C800214B224D1B78AF688DF8003006463C2303
:1040D8002A681F498DF80F700BA801F04DF80C9C49
:1040E8007CB16368013B63605BB9236820469B68C9
:1040F8009847A368013BA3601BB923682046DB6887
:104108009847FAB2296804A801F0F5FF0BA800F057
:10411800EEFA0023082203A90BA800F002FB2EB137
:1041280000F092FD0BA900F091FB0AE000F08CFD75
:10413800822100F06BFB00F087FD32460BA900F0EE
:10414800ACFB15B0F0BD00BFBCE30320ACE303201B
:1041580008620D0008B50020FFF7A8FF034A0449CC
:104168000448BDE8084000F0EDBE00BF17620D002E
:1041780081410D00214F0D0008B50146034801F0AB
:104188004FFC0120FFF792FF012008BDACE303209C
:1041980010B5084B084C01221A7000F09DF8074929
:1041A800204601F02AFC2046054A0649BDE8104091
:1041B80001F032BEBCE30320ACE3032022620D0011
:1041C800A8E3032075590D0008B5024B1B689B68CE
:1041D800019308BD7802030008B5024B1B685B69B0
:1041E800019308BD7802030008B5024B1B689B6C5D
:1041F800019308BD7802030008B5024B1B68DB6C0D
:10420800019308BD7802030008B5024B1B681B6DBB
:10421800019308BD7802030008B5024B1B689B6D2B
:10422800019308BD7802030008B5024B1B681B6E9A
:10423800019308BD7802030008B5024B1B689B6810
:10424800019308BD4802030008B5024B1B681B69AF
:10425800019308BD4802030008B5024B1B685B695F
:10426800019308BD4802030008B5024B1B681B6B8D
:10427800019308BD4802030008B5024B1B685B6C3C
:10428800019308BD4802030008B5024B1B68DB6CAC
:10429800019308BD4802030008B5024B1B685B6D1B
:1042A800019308BD4802030008B5024B1B685B6810
:1042B800019308BD1802030008B5024B1B68DB68B0
:1042C800019308BD1802030008B5024B1B685B691F
:1042D800019308BD1802030008B5024B1B681B6850
:1042E800019308BD2C02030008B5024B1B685B69EB
:1042F800019308BD6402030008B5024B1B689B6864
:10430800019308BD6802030008B5024B1B68DB680F
:10431800019308BD6802030008B5024B1B68DB69FE
:10432800019308BD3002030008B5024B1B681B68E7
:10433800019308BD3C02030008B5024B1B68DB680B
:10434800019308BD3C02030008B5024B1B681B69BA
:10435800019308BD3C02030008B5024B1B685B696A
:10436800019308BD3C02030008B5024B1B689B691A
:10437800019308BD3C02030008B5024B1B68DB69CA
:10438800019308BD3C02030008B5024B1B689B6AF9
:10439800019308BD3C02030008B5024B1B681B686B
:1043A800019308BD4C02030008B5024B1B681B694A
:1043B800019308BD4C02030008B5024B1B685B69FA
:1043C800019308BD4C02030008B5024B1B689B69AA
:1043D800019308BD4C02030008B5024B1B68DB695A
:1043E800019308BD4C02030008B5024B1B681B6A09
:1043F800019308BD4C02030008B5024B1B685B6BB8
:10440800019308BD6002030008B5024B1B685B6896
:10441800019308BD2002030008B5024B1B68DB6C42
:10442800019308BD2002030008B5024B1B685B6DB1
:10443800019308BD2002030008B5034B1B68D3F89D
:104448008830019308BD00002002030008B5034B23
:104458001B68D3F89430019308BD000020020300C4
:1044680008B5024B1B685B68019308BD4402030052
:1044780008B5024B1B681B6A019308BD4402030080
:1044880008B5024B1B68DB6B019308BD44020300AF
:1044980008B5024B1B685B68019308BD4002030026
:1044A80008B5024B1B689B68019308BD40020300D6
:1044B80008B5024B1B68DB68019308BD4002030086
:1044C80008B5024B1B681B69019308BD4002030035
:1044D80008B5024B1B685B69019308BD40020300E5
:1044E80008B5024B1B689B69019308BD4002030095
:1044F80008B5024B1B68DB69019308BD4002030045
:1045080008B5024B1B681B6A019308BD40020300F3
:1045180008B5024B1B681B6B019308BD40020300E2
:1045280008B5024B1B685B6B019308BD4002030092
:1045380008B5024B1B681B68019308BD1C020300E9
:1045480008B5024B1B685B68019308BD1C02030099
:1045580008B5024B1B689B68019308BD1C02030049
:1045680008B5024B1B68DB6A019308BD1C020300F7
:1045780008B5024B1B681B6B019308BD1C020300A6
:1045880010B5836804460BB901F04DFCC368984721
:10459800A3681BB1032221462046984720461021D4
:1045A800BDE8104001F03DBC70470020704710B5D1
:1045B8001421044601F035FC204610BDFFF769BD03
:1045C80010B5036804469B689847A368013BA3603D
:1045D8002BB923682046DB68BDE81040184710BD9A
:1045E80008B582798B799A4206D1062201F074FDCA
:1045F800B0FA80F0400908BD002008BD10B50023BE
:104608000370044B04461868FFF73EFE012323702D
:10461800204610BDE4E3032010B5037804461BB11F
:10462800024B1868FFF738FE204610BDE4E303206C
:10463800F0B58BB10024E51C8D420FD8661C055DD2
:10464800875D974205D12E44B14207D31C60681C90
:10465800F0BD01352C44EEE71846F0BD0020F0BD52
:104668002DE9F74304460E461D461746002A3AD060
:104678000A4601AB016AFFF7DBFF9DF82830226A82
:1046880003BBF8B1961C2E44361A1F2E2BD8DDF822
:10469800048008F10209C8EB0202121A00EB0801B3
:1046A80005EB090092B22144204401F02FFD6B1C58
:1046B80004F808302A46394604EB090001F01BFDCE
:1046C800266210E0901C2B181F2B0CD86B1CA354CF
:1046D800224420623946567020442A4601F00BFDD8
:1046E800226A2A442262206A03B0BDE8F0831FB51B
:1046F8000446034600F11F02002003F8010B934211
:104708004FF00001F9D104AA062302F8013D012364
:104718002162009120461946FFF7A2FF204604B007
:1047280010BD07B5009313460A46FF21FFF798FF0F
:1047380003B05DF804FB73B50A460E4601AB016A87
:104748000446FFF775FF054678B10198226A2918D3
:10475800121A521B2144204401F0CDFC236A5D1B30
:10476800256231462046FFF7E6FF02B070BD2DE90D
:10477800F84390E850000D461746984604EBC606E5
:10478800A64233D023689A69D96902EBC1019142E4
:104798001BD013689BB1B3F84200A84211D0B3F8FC
:1047A8004400A8420DD0B3F84600A84209D0B3F897
:1047B8004800A84205D0B3F84A00A84201D0083200
:1047C800E5E717B1B8F1000F01D10834D8E7D3F8FD
:1047D8004C90B9F1000FF8D0B3F84420AA42F4D1B4
:1047E8001B6D089A41463846C847EEE7BDE8F8838E
:1047F80008B500680968C28ACB8A9A4204D1013197
:104808000130FFF7EDFE08BD002008BD30B585B0CA
:10481800002468460D46FFF7F1FE0C23214601A847
:10482800019402940394ADF80630FFF7E5FC0028E4
:1048380005DB214601A8ADF80850FFF7D5FC044672
:104848006846FFF7E9FE204605B030BD084609B9BD
:104858000A4601E0096A0022FFF7D6BC10B50C46EB
:1048680011B90A46084606E001212046FFF763FF12
:10487800216A00222046BDE81040FFF7CDBC13B5E1
:1048880001A8FFF7BBFE0020FFF7CEFC044601A8F5
:10489800FFF7C2FE204602B010BD73B505460C46B0
:1048A80001A81646FFF7AAFE21462846FFF7CEFFC5
:1048B800002808DB31462846FFF7D0FF002802DB36
:1048C8002846FFF7DCFF044601A8FFF7A5FE2046AF
:1048D80002B070BD30B5836993E8140002EBC404DC
:1048E800A242134607D01D68ED8A8D4202F10802E4
:1048F800F6D1184630BDC2691368526803EBC2028C
:104908009A42184606D00468E48A8C4203F10803E8
:10491800F6D130BD002030BD10B50446006828B17E
:104928004368013B43600BB9FFF74AFE204610BDC0
:104938000B68036013B15A6801325A60704710B5AA
:1049480051F8043B044640F8043BFFF7F1FF2046CA
:1049580010BD70B504684368054604EBC306A6425B
:1049680004D0201DFFF7D8FF0834F8E72868FFF7C0
:10497800E7FD284670BD38B5044610200D78FFF7CE
:1049880086FB20B1002303604360836005732060C9
:10499800204638BD38B50468054634B12046FFF7CF
:1049A800D8FF1021204601F03CFA284638BD10B542
:1049B800046904F11C00FFF7EDFF2046BDE8104034
:1049C800FFF767BB70B504684368054604EBC30688
:1049D800A64204D0201DFFF79FFF0834F8E7002304
:1049E8006B6070BD8842F8B506460C46154614D96A
:1049F800904213D2A2F108056C1AA1F108070444E9
:104A0800AF4218D01CB129462046FFF798FF281D51
:104A1800FFF782FF083D083CF2E70CD0AC420AD011
:104A28001EB121463046FFF78AFF201DFFF774FFAD
:104A380008340836F2E7F8BDF8B50B68DA690E46AF
:104A480013685168054603EBC101002499420DD053
:104A580018688269C06902EBC000904204D052F81D
:104A6800087B87F85C40F8E70833EFE733684FF6D0
:104A7800FF710022D9827F211A701976C3F80A20A3
:104A8800C3F80E20C3F812202C686B6804EBC30728
:104A9800BC4216D031462046FFF7AAFE08B90834B2
:104AA800F6E774B1201DFFF737FF2B686A6804F139
:104AB800080103EBC2022046FFF794FF6B68013B35
:104AC8006B60F8BDF7B5044646686846FFF737FFE0
:104AD8006768A3689F4214DB0137002F0BDDF800DD
:104AE800FFF726FD054600B394E8060001EBC20275
:104AF800FFF778FF00E000252068FFF721FD25601B
:104B0800A7602368626803EBC60503EBC202294667
:104B180005F10800FFF766FF1DB169462846FFF753
:104B28000EFF636801336360012501A8FFF7F4FEF7
:104B3800284603B0F0BD70B504684368054604EB29
:104B4800C306A64204D0201DFFF7E6FE0834F8E7A6
:104B58002868FFF7F5FC284670BD10B5044638B143
:104B6800FFF7E9FF20460C21BDE8104001F059B9D4
:104B780010BD10B5044638B1FFF7DDFF20460C2103
:104B8800BDE8104001F04DB910BD000037B5002553
:104B98000446056045608560C560056145618561BD
:104BA800C5612846FFF710FB20B1254A29460A208F
:104BB800FFF722FC01230DF1030101A88DF8033052
:104BC800FFF7D9FE2569019B23610022019235B1C7
:104BD8002846FFF7BEFE1021284601F022F901A859
:104BE800FFF7D8FE0120FFF752FA636960611BB135
:104BF8000121184601F015F90C20FFF748FA034681
:104C080018B10022026042608260A069A36108B105
:104C1800FFF7A3FF0C20FFF73AFA034618B100226A
:104C2800026042608260E069E36108B1FFF7A1FFBA
:104C3800002221460348FFF7CFFA204603B030BDD3
:104C4800C1420D00414D0D0010B50A4C2368DB0729
:104C58000ED42046FFF721FA50B10748FFF796FF18
:104C68002046FFF71FFA054A0549034801F0D4F822
:104C7800014810BDE0E30320C0E30320A8E30320BC
:104C88008D4C0D0010B50446C06908B1FFF771FFDF
:104C9800A06908B1FFF761FF606910B1012101F057
:104CA800C0F804F11000FFF775FE204610BD0000A3
:104CB80073B500250560456006462020FFF7E7F933
:104CC8000446B0B1034601A903F8015BC0F80150DE
:104CD8005D604FF6FF73C3827F23C0F80A50C0F8A7
:104CE8000E50C0F8125003761C308DF80450FFF7B0
:104CF80042FE002314200193FFF7C9F928B10123CC
:104D080043608360064B03600461736834607060BD
:104D180001A80193FFF700FE304602B070BD00BF46
:104D280034620D0013B54FF0000101AA0446FFF7E5
:104D3800BFFF204602B010BDF0B504468BB00D464B
:104D4800002900F0A58003A8FFF758FC6368033B1F
:104D5800072B00F29A80DFE803F0044498989898AB
:104D6800808B06A8FFF7DEFF069BA2899A826289DC
:104D78005A8222891A822289DA81228BDA82224691
:104D8800A17D52F8100F04909288ADF81420049871
:104D9800BDF81420D971C3F80100A3F805202B68C9
:104DA80013B1A96806A89847A37B012B069B0BBFE4
:104DB800022201221A701A700CBFAC69EC69636890
:104DC800002B0ADC06A908A8FFF7B9FD08A92046A8
:104DD800FFF778FE09A8FFF79FFD07A8FFF79CFDDE
:104DE80053E0A1892846FFF775FD044600284CD0FA
:104DF8006B680BB1E968984723681A78012A04D1CF
:104E08002146E869FFF718FE3FE0DA69A8691368E8
:104E18005168002603EBC10199420DD01D68AA69AB
:104E2800ED6902EBC505954204D052F8087B87F876
:104E38005C60F8E70833EFE723684FF6FF7100225C
:104E4800D9827F211A701976C3F80A20C3F80E2078
:104E5800C3F81220FFF7B6FD17E0A18A2846FFF72E
:104E680039FD90B1E18A0090E368226928690AE077
:104E7800A18A2846FFF72EFD38B10568E18A00901F
:104E8800E3682269E869FFF772FC03A8FFF7C4FB2F
:104E98000BB0F0BD024800230360FFF7EDB900BF77
:104EA800E4E3032070470020704710B51021044642
:104EB80000F0B7FF204610BD08B508B1FFF7F5FFB1
:104EC80008BD10B58368044613B10322014698470C
:104ED800204610BD38B5C468ECB12378022B02D146
:104EE800E068FFF72DFB656835B12846FFF7E9FF55
:104EF8001021284600F095FFA56835B12846FFF730
:104F0800E0FF1021284600F08CFF20461421BDE860
:104F1800384000F086BF38BD10B588B004466846F2
:104F280000F06BFD694604A800F089FD04A8A047BD
:104F3800044604A800F01AFD684600F017FD204654
:104F480008B010BDF0B5102485B007460E461546CA
:104F580000212246684601F0F4F80022694610460E
:104F6800ADF80040029703960195FFF779FA05B06E
:104F7800F0BD13B5044691E8050000234B600B60B3
:104F88002060626001A801930093FFF7C5FC2046EA
:104F980002B010BDF7B50C4602AD54F8043B45F815
:104FA800083D06460F4601A82146FFF7C1FC2946E1
:104FB8003046FFF7DEFF01A8FFF7AEFC2046FFF7FB
:104FC800ABFC3846082100F02CFF304603B0F0BD9A
:104FD80013B50B46044603C88DE8030093E80300A5
:104FE80084E803009DE8030083E8030002B010BDD5
:104FF800826810B50AB900F016FFC368BDE8104012
:10500800184708B5006800F11001FFF7F1FF08BD67
:10501800826810B50AB900F006FFC368BDE8104001
:10502800184708B5006800F11001FFF7F1FF08BD47
:1050380038B5002383608B6804460D462BB10222E5
:105048009847EB68E360AB68A360204638BD000072
:105058002DE9F0414FF69C7386B00468B1F904203D
:105068008B8000230F688DF800300B604FF0020032
:10507800D4E84F1F994203D1C4E8450F002DF7D15A
:1050880002D08DF800106BE014F10C051EBFE7602C
:1050980022821F460123BFF35F8F0020637004F153
:1050A8000803BFF35F8F53E8006F43E80002002A4C
:1050B800F9D1BFF35F8F002E52D0FFF7ADF920B1C1
:1050C80029463046FFF794FF43E031466846FFF72C
:1050D800AFFFE068B4F9105008B101F063F804902C
:1050E8001020ADF81450FEF7D2FF054630B34FF04C
:1050F8000008C0F808801820FEF7C9FF0446C0B1B0
:10510800C0F8088001466846FFF762FF029BA26864
:10511800A360039B0292E268E360BDF81430A382A7
:105128004FF69C73ADF81430049B03922361CDF8BD
:1051380010800E4BEB600E4B2C60AB600498FFF7B1
:10514800FFF96846FFF7BDFE002229460948FFF728
:105158006BF93046FFF7B5FE1021304600F061FECE
:105168003846FFF7EDF906B0BDE8F0810B500D00A9
:1051780069520D0089450D002DE9F04F8BB007AD40
:105188004FF0000B0646994614200C230F46904614
:105198009DF850A0C5F804B0C5F808B00793FEF70D
:1051A80076FF044638B180F800B080F801B0C0F846
:1051B80004B0C0F808B00023102003940493FEF74D
:1051C80066FF28B1012343608360234B0360C460FA
:1051D8000490224B08930820FEF759FF044628B193
:1051E800039B40F8043B04A9FFF7A2FB00955FFA74
:1051F8008AF34A46414638460994FFF739F9B8B95F
:10520800039B5B7803F0FF0293B94FF69C7305A9E3
:1052180003A80592ADF81830FFF71AFF0598FFF7B5
:105228008FF905A80999FFF7B5FE06A8FFF774FBE3
:10523800039B059304A906A8FFF77AFB05A9304646
:10524800FFF797FE06A8FFF767FB04A8FFF764FBC4
:1052580030460BB0BDE8F08F50620D00D5530D00FD
:10526800022AF8B5044606D0032A17D0012A21D10C
:105278000B6803601EE018200E68FEF708FF05465D
:1052880050B13146FFF7D4FE3069B6F9147008B151
:1052980000F088FF2861AF8225600BE004684CB1FC
:1052A8002069FFF74DF92046FFF70BFE182120462D
:1052B80000F0B7FD0020F8BD38B5002383608B6887
:1052C80004460D462BB102229847EB68E360AB68B1
:1052D800A360204638BD022A70B5044606D0032ACA
:1052E80011D0012A18D10B68036015E014200E684C
:1052F800FEF7CDFE054620B13146FFF7DDFF337CD2
:105308002B74256008E0046834B12046FFF7D9FD06
:105318001421204600F085FD002070BDF0B5002363
:1053280087B00C46BFF35F8F50E8006F40E800324B
:10533800002AF9D1BFF35F8F002E3FD01846FFF740
:105348006BF8074620B121463046FFF761FE2EE094
:10535800314601A8FFF7B0FF23788DF814301020EC
:10536800FEF795FE0546D0B187601420FEF78FFE44
:10537800044678B18760014601A8FFF729FE039B20
:10538800A268A360049B0392E268E3609DF814306E
:10539800049223740A4BEB600A4B2C60AB6001A8A3
:1053A800FFF78FFD002229460748FFF73DF83046F2
:1053B800FFF787FD1021304600F033FD07B0F0BD40
:1053C8002B500D00DF520D0089450D0030B585B01A
:1053D80004460D4668461146FFF7DCFD7CB124B251
:1053E80028460DB100F0DEFE029002A96846ADF82D
:1053F8000C40FFF72DFE0298FFF7A2F81DE0009879
:105408008DF808404FF00102D0E84F3FA34203D186
:10541800C0E8412F0029F7D102D08DF808300CE000
:1054280010F10C014FF0010318BF0373BFF35F8F36
:10543800043000F8033CFFF771FF01A8FFF76CFA8E
:1054480005B030BD002211464068FFF759B8002268
:1054580011464068FFF764B800224068FFF758B863
:10546800002281F001014068FFF742B800231A4684
:1054780019464068FFF734B800231A4619464068B1
:10548800FFF726B8002211464068FFF719B8002236
:1054980011464068FFF704B8002202214068FFF770
:1054A80007B800231A464068FEF7F2BF024B0322F2
:1054B8005A60024A1A607047E8E303206C620D00E4
:1054C800704710B51821044600F0ABFC204610BD0B
:1054D800F0B5037D062B8DB00E4600F104074FF0A2
:1054E800000402D000F1080518E00CAD394605F8B3
:1054F800304D2F232A460A20FEF7F6FE284600F0F4
:105508006CFE33680246DB682946304698470FE050
:1055180024B12E21304600F0C7F9044415F8011DC6
:105528000A22304600F0F0F9BD420444F0D120468A
:105538000DB0F0BD10B5054B0446112240F8043BF0
:10554800002100F0FEFD204610BD00BFA0620D0046
:105558000346074A10B543F8042B01F1100251F82D
:10556800044B43F8044B9142F9D10A781A7010BDE4
:10557800A0620D0010B59DF8084044EA032343EAF1
:10558800024242EA016104234160037510BD37B548
:105598000D788B784A78C97800912946FFF7EAFF99
:1055A80003B030BD014B024A1A607047F0E3032094
:1055B80064630D00002211464068FEF7A1BF002277
:1055C80011464068FEF7ACBF00224068FEF7A0BF56
:1055D800002281F001014068FEF78ABF00231A46C5
:1055E80019464068FEF77CBF00231A4619464068F2
:1055F800FEF76EBF002211464068FEF761BF002229
:1056080011464068FEF74CBF002202214068FEF7B1
:105618004FBF00231A464068FEF73ABF38B5054623
:1056280088B104684CB1A3681BB103222146204607
:1056380098471021204600F0F4FB28461421BDE8C5
:10564800384000F0EEBB38BD10B103685B681847FE
:10565800704710B503680446BBB15868FEF7ECFD07
:1056680078B923685A7C12B95868FEF7EDFD2368AB
:105678005868FEF7F1FD20680023236028B1FFF782
:10568800CDFF206808B1FFF7C9FF204610BD000014
:1056980038B50C4B03600446D0F8CC0108B1FEF7CE
:1056A800FAFCD4F8C45135B12846FFF7D2FF0421DB
:1056B800284600F0B6FBA06808B1FFF7C5FF2046F2
:1056C80038BD00BF98630D0038B50D4C0D4B2360F5
:1056D8000025022304F5E4706360A560C4F8C45192
:1056E800C4F8C851FEF7C8FD074BC4F8CC51236075
:1056F8002046064A0649BDE8384000F08DBB00BF89
:10570800F4E30320CC630D0098630D00A8E30320A5
:1057180099560D0000231A464068FEF7B9BE0022CC
:1057280002214068FEF7C4BE002211464068FEF719
:10573800B7BE002211464068FEF7C2BE00231A46D3
:1057480019464068FEF7C4BE00231A461946406849
:10575800FEF7C6BE002281F001014068FEF7C8BE10
:1057680000224068FEF7D4BE002211464068FEF7CA
:10577800D7BE002211464068FEF7C2BE2DE9F043AD
:10578800002495B016460D460746FFF7D3FE21467E
:1057980020220CA8009400F0D4FC40230C9321464E
:1057A8006B460CAA3046FEF7AFFD0446002844D1EC
:1057B800024601216868FEF783FE022180462246E0
:1057C8006868FEF77DFE009E81462146002E34D093
:1057D800002932D17368022B02D00A2B09D02AE0A3
:1057E800B8F1000F27D0716938460431FFF7CFFEB2
:1057F80020E0B9F1000F1ED07469112201A800F051
:10580800A0FC06238DF8143001AD04F10803183408
:10581800186859682A4603C20833A3421546F7D1C7
:1058280001A906A807ADFFF793FE0FCD3C1D0FC4D5
:105838002B6823700121F669C8E70098FEF75CFD24
:10584800384615B0BDE8F083024B034A1A600022BF
:105858005A607047C4E50320CC630D00F8B50646CE
:105868000D468F180024BD420CD0336815F8011B73
:105878009B6830469847002801DB0444F3E7002C76
:1058880008BF04462046F8BD70B505460C460846D4
:1058980049B100F0A2FC2B68024621462846DB6885
:1058A800BDE87040184770BD03689B68184730B55D
:1058B8008BB00B4600218DF82410012A98BF0A22CC
:1058C8000DF12304B3FBF2F505FB123303F0FF03DC
:1058D800092B94BF30333733DBB2214604F8013942
:1058E8002B46002DEED1FFF7CFFF0BB030BD10B423
:1058F8002AB903685DF8044B9B68C9B21847D2B24D
:105908005DF8044BFFF7D3BFFFF7F1BF10B50446AE
:10591800FFF7D7FA204610BD0348044A044900237C
:10592800836000F079BA00BFCCE50320A8E3032028
:1059380015590D00704710B51021044600F071FA92
:10594800204610BD70B5084B0360044600250E467E
:1059580040F80C5FFEF788FC30462671FEF7DCFC49
:10596800A560204670BD00BF00640D0010B5044658
:105978000068FEF7E5FD204610BD10B50446006836
:1059880008B1FEF7DDFD00232360A360636010BD4E
:1059980038B504460D4600680131FEF7D9FD10B14F
:1059A80084E82100012038BD10B50368044613B10E
:1059B80043688B4207D22046FFF7EAFF20B1A3686D
:1059C8000BB922681370012010BD70B50E46114640
:1059D80004461546FFF7E8FF18B92046FFF7CDFF44
:1059E80009E02A463146A560206800F084FB226859
:1059F800A3680021D154204670BD38B50023044661
:105A080003604360836003730D4639B1084600F0B4
:105A1800E4FB294602462046FFF7D7FF204638BD5B
:105A2800884210B50B46044607D0096819B19A6830
:105A3800FFF7CBFF01E0FFF7A0FF204610BD10B530
:105A4800002304460360436083600373FFF7E8FFA5
:105A5800204610BD044B00204FF6FF721870588086
:105A68009A80FEF7D1BC00BFDCE50320024B1A6820
:105A7800024B1A60704700BF40E30320E4E50320AF
:105A880070474174704708B5007CFEF77DFC20EA3A
:105A9800E07008BD08B5007CFEF756FC20EAE0700F
:105AA80008BD08B5007CFEF75FFC30EA200028BF7F
:105AB8004FF0FF3008BD08B5007CFEF74DFC30EA1A
:105AC800200028BF4FF0FF3008BD007CFEF754BC13
:105AD80010B51421044600F0A4F9204610BD70B595
:105AE800457C04460E4625B9007CFEF74DFC00288F
:105AF80005DD3146207CBDE87040FEF71DBC284618
:105B080070BD000010B504460846114600226260C8
:105B18004FF47A72A260054A2260012220746274EE
:105B28001A46FEF701FC204610BD00BF3C640D007C
:105B380038B50C4D296811F0010411D12846FEF73B
:105B4800ACFA68B1084A094B09482146FFF7DAFF61
:105B58002846FEF7A7FA074A0749054800F05CF906
:105B6800034838BD80E6032084E60320FCE50320D3
:105B7800E8E50320A8E30320895A0D004174704723
:105B8800704708B50021007CFEF71EFC30EA2000B3
:105B980028BF4FF0FF3008BD08B50121007CFEF793
:105BA80013FC30EA200028BF4FF0FF3008BD08B5CD
:105BB800007CFEF701FC20EAE07008BD08B5007C17
:105BC800FEF7F2FB20EAE07008BD007CFEF70CBC93
:105BD80010B51421044600F024F9204610BD38B54C
:105BE8000446007C0D46FEF7E7FB002801DC607CDC
:105BF80028B12946207CFEF7EFFB20EAE07038BD8B
:105C080010B50446002363604FF47A73A360054B14
:105C1800236001230846217463741146FEF7BCFB18
:105C2800204610BD6C640D0010B5142204460021F6
:105C380000F087FA204610BD30B50E4D87B001A898
:105C4800FFF7F2FF296811F0010410D12846FEF78A
:105C580024FA60B101AA21460748FFF7D1FF284678
:105C6800FEF720FA054A0649034800F0D5F802482D
:105C780007B030BD08E703200CE70320A8E30320A2
:105C8800895B0D00002211464068FEF719BC00220E
:105C980011464068FEF734BC002211464068FEF702
:105CA8003FBC00224068FEF733BC002281F00101AE
:105CB8004068FEF71DBC00231A4619464068FEF7E7
:105CC8000FBC00231A4619464068FEF701BC0022A3
:105CD80011464068FEF7E4BB002202214068FEF747
:105CE800E7BB00231A464068FEF7D2BB024B0422EA
:105CF8005A60024A1A60704720E703209C640D002E
:105D080008B50C4B33B1FFF797FF03681B69984739
:105D1800002809DC084B63B1FFF70AFF03681B6919
:105D28009847002803DC08BDAFF30080F2E7AFF323
:105D3800008008BD000000000000000008B5FFF763
:105D4800DFFFFEF7C1FA014B186008BD2CE70320FE
:105D580007B5002300931A466FF07701FEF776FB2C
:105D680003B05DF804FB000007B543880A2B08D090
:105D7800502B09D1094B1B683BB103B05DF804EB0C
:105D88001847FFF7E5FF06E0002300931A466FF077
:105D98007701FEF75BFB03B05DF804FB28E70320FF
:105DA80010B5FEF781FA044600F0D4F9074B13B199
:105DB8002046AFF3008000210448FEF761FB002174
:105DC8000348BDE81040FEF737BB00BF00000000E5
:105DD800715D0D0070B50C4C0C4E0D4D0021204628
:105DE800FFF7B0FD20460B4C3246294600F014F868
:105DF80001212046FFF7A6FD324629462046BDE888
:105E0800704000F009B800BF30E70320A8E3032082
:105E18003D590D0040E703200B460146184600F0A7
:105E28004DB9FEF736B908B5FEF79AFB244B1A6848
:105E3800D0075CBF01221A60224B1A68D1075CBFE9
:105E480001221A60204B1A68D2075CBF01221A602F
:105E58001E4B1A68D0075CBF01221A601C4B1A68D7
:105E6800D1075CBF01221A601A4B1A68D2075CBFBF
:105E780001221A60184B1A68D0075CBF01221A6009
:105E8800164B1A68D1075CBF01221A60144B1A68B6
:105E9800D2075CBF01221A60124B1A68D0075CBF98
:105EA80001221A60104B1A68D1075CBF01221A60E0
:105EB8000E4B1A68D2075CBF01221A60704700BFF8
:105EC8007CE7032078E7032074E7032070E70320CA
:105ED8006CE7032068E7032064E7032060E70320FA
:105EE8005CE7032058E7032054E7032050E703202A
:105EF800184B1A68D1075CBF01221A60164B1A6842
:105F0800D2075CBF01221A60144B1A68D0075CBF25
:105F180001221A60124B1A68D1075CBF01221A606D
:105F2800104B1A68D2075CBF01221A600E4B1A6820
:105F3800D0075CBF01221A600C4B1A68D1075CBFFE
:105F480001221A600A4B1A68D2075CBF01221A6044
:105F5800704700BF9CE7032098E7032094E70320DD
:105F680090E703208CE7032088E7032084E70320D9
:105F780080E70320184B1A68D1075CBF01221A601A
:105F8800164B1A68D2075CBF01221A60144B1A68B4
:105F9800D0075CBF01221A60124B1A68D1075CBF98
:105FA80001221A60104B1A68D2075CBF01221A60DE
:105FB8000E4B1A68D0075CBF01221A600C4B1A6896
:105FC800D1075CBF01221A600A4B1A68D2075CBF6E
:105FD80001221A60704700BFBCE70320B8E703201E
:105FE800B4E70320B0E70320ACE70320A8E70320C9
:105FF800A4E70320A0E70320244B1A68D0075CBF5E
:1060080001221A60224B1A68D1075CBF01221A606C
:10601800204B1A68D2075CBF01221A601E4B1A680F
:10602800D0075CBF01221A601C4B1A68D1075CBFFD
:1060380001221A601A4B1A68D2075CBF01221A6043
:10604800184B1A68D0075CBF01221A60164B1A68F1
:10605800D1075CBF01221A60144B1A68D2075CBFD3
:1060680001221A60124B1A68D0075CBF01221A601D
:10607800104B1A68D1075CBF01221A600E4B1A68D0
:10608800D2075CBF01221A60704700BFECE703200B
:10609800E8E70320E4E70320E0E70320DCE7032048
:1060A800D8E70320D4E70320D0E70320CCE7032078
:1060B800C8E70320C4E70320C0E7032010B5054C58
:1060C80013462CB10A4601460220AFF3008010BDEA
:1060D800204610BD0000000010B50139024490426E
:1060E80007D010F8013B11F8014FA342F7D0181B55
:1060F80010BD002010BD10B5431E0A44914204D0C3
:1061080011F8014B03F8014FF8E710BD884210B5AC
:1061180001EB020301D8421E0BE09842FBD2811822
:10612800D21AD34204D013F8014D01F8014DF8E713
:1061380010BD994204D011F8014B02F8014FF8E75D
:1061480010BD02440346934202D003F8011BFAE74C
:106158007047000038B5124B1C68A36B0546D3B9CD
:106168001820FEF7E5F943F20E33A06303804AF6E0
:10617800CD33438041F2342383804EF26D63C38074
:106188004DF6EC630381052343810B2383810122B0
:106198000023C0E90423A36B00221D615A6138BDA6
:1061A800A4E30320024B0146186800F003B800BFBF
:1061B800A4E3032070B5064608460C4600F00DF827
:1061C800451C29463046FEF7D3F9064618B12A463B
:1061D8002146FFF790FF304670BD034613F8012BA8
:1061E800002AFBD1181A0138704700001D400D0025
:1061F80059400D0085400D0089400D000000000049
:10620800626561636F6E2F6164765465787400739C
:106218006574416476546578740053616D706C657B
:10622800000000000000000000000000B1450D0063
:10623800B7450D00B7490D00C5450D00B3450D0024
:106248000000000000000000AD4E0D00B34E0D0030
:10625800DD4E0D00C14E0D00AF4E0D0000000000D8
:1062680000000000AB540D00A1540D0097540D0020
:106278008D540D0081540D0075540D0069540D00A6
:1062880061540D0057540D004D540D0085570D00F5
:106298000000000000000000D9540D00C9540D0092
:1062A800CB540D0066006C6E00666E00636F64650B
:1062B8000064657461696C000D0A00253031307521
:1062C80020005D20002564002C200028293A2000A9
:1062D800205B00636F6465203D20002569006465CC
:1062E8007461696C73203D200062617564005365B8
:1062F8007269616C0053657269616C310074797000
:106308006500706172616D00636D640069640068A6
:106318006E64007374726D0066696C74006C766CE0
:106328000061646448616E646C65720072656D6FCB
:10633800766548616E646C657200656E756D48615E
:106348006E646C657273004A534F4E537472656184
:106358006D4C6F6748616E646C65720061707000A7
:106368006E6F6E6500747261636500696E666F00BA
:106378007761726E006572726F720070616E696328
:1063880000616C6C000000000000000000000000CC
:106398001B560D0011560D0007560D00FD550D003A
:1063A800F1550D00E5550D00D9550D00D1550D00DD
:1063B800C7550D00BD550D0085570D0000000000A4
:1063C800000000001D570D0027570D0031570D0024
:1063D8003B570D0045570D0051570D005D570D00F7
:1063E80069570D0071570D007B570D0085570D003B
:1063F80000000000000000003D590D003F590D004D
:106408005A00252B3033643A253032750025592D32
:10641800256D2D25645425483A254D3A2553257A6E
:106428000061736374696D6500000000000000007E
:1064380000000000895A0D00D95A0D00E75A0D00D6
:1064480065580D009D5A0D00BF5A0D00AB5A0D003E
:10645800D35A0D008B5A0D008F5A0D000000000012
:1064680000000000895B0D00D95B0D00E75B0D00A3
:1064780065580D00C55B0D008B5B0D00A15B0D0021
:10648800D35B0D00B75B0D00855B0D0000000000BD
:1064980000000000EB5C0D00E15C0D00D75C0D0016
:1064A8008D5C0D00CB5C0D00BF5C0D00B35C0D0076
:1064B800AB5C0D00A15C0D00975C0D0085570D00CD
:1064C80000000000000000000000000000000000C4
:1064D80000000000000000000000000000000000B4
:1064E80000000000000000000000000000000000A4
:1064F8000000000000000000000000000000000094
:106508000000000000000000000000000000000083
:106518000000000000000000000000000000000073
:106528004300000099410D009D4E0D00B5540D002B
:10653800AD550D00D1560D0051580D0021590D00D3
:106548005D5A0D00755A0D00F55C0D00DD5D0D00FE
:10655800355E0D00F95E0D007D5F0D0001600D00D8
:0865680000000000000000002B
:1065700029640D0000000000C8640D00E8640D00EF
:1065800008650D0000000000000000000000000091
:106590000000000028650D00000000000000000061
:1065A00000000000000000000000000000000000EB
:1065B00000000000000000000000000000000000DB
:1065C00000000000000000000000000000000000CB
:0865D0000000000044E3032079
:1065D800FFFFFFFF00000102030405060708090A80
:1065E8000B0C0D0E0F101112131415161718191A7B
:0865F8001B1C1D1E1F202800C2
:046600007856341282
:04000003D0004018D1
:00000001FF
