:02000002D0002C
:1040000000400D00F0670D00000006000C000501E7
:08401000040115050000000089
:1040180090630D0009480A49884208B505D0094A45
:10402800824202D0121A02F034F90748074A0021E6
:10403800121A02F054F9014808BD00BF20E303201A
:1040480060670D0088E3032088E30320F0E703207E
:1040580070B501F005FF074C074BE41AA4080025CA
:104068001E46A54204D056F8253098470135F8E792
:1040780070BD00BF54670D0018670D0000F016B83A
:1040880008B500F061F8BDE8084001F0B7BE00F0DF
:10409800CBBA00F0D1BA00F0CFBA0078B0FA80F00D
:1040A80040097047012303707047000000B597B0BE
:1040B80001F022FE4FF4165101F012FE01210720F3
:1040C80001F00CFF0DA800F0EFFB134903A800F066
:1040D8001FFB03A908A800F01BFB9DF8303013F064
:1040E800FD0305D00023009308AA1023072107E049
:1040F80016AABDF8201022F84E1D009303210223B2
:104108000DA800F08AFB00F053FE00220DA900F074
:1041180077FC17B05DF804FB8EE3032038B504681C
:1041280005467CB16368013B63605BB92368204640
:104138009B689847A368013BA3601BB92368204686
:10414800DB689847284638BD7FB5214C2578002D77
:1041580031D100F02DFE00F070FC002836D0012689
:10416800267000F0C5F81B4C1B4B1C4A18602378BE
:104178008DF800301A493C2302A801F083F803A8FF
:10418800FFF7CCFF2378174A8DF8003016493C23F7
:1041980002A801F077F803A8FFF7C0FF314607200F
:1041A80001F0ADFE4FF4FA6000F05EFA29460720F0
:1041B80001F0A5FE0AE000F09BF8074B1B6803F529
:1041C8006A436033984284BF0023237004B070BDF3
:1041D8008CE30320A2E30320A4E30320A4630D00DF
:1041E800AC630D00C0630D00E5630D0008B5054B19
:1041F80001221A7000F084F803490448BDE8084019
:1042080000F091BAA2E30320C0630D008EE30320FF
:1042180008B5024B1B689B68019308BD7802030030
:1042280008B5024B1B685B69019308BD780203005F
:1042380008B5024B1B681B6D019308BD780203008B
:1042480008B5024B1B689B6D019308BD78020300FB
:1042580008B5024B1B681B6E019308BD780203006A
:1042680008B5024B1B689B68019308BD4802030010
:1042780008B5024B1B681B69019308BD480203007F
:1042880008B5024B1B685B69019308BD480203002F
:1042980008B5024B1B681B6B019308BD480203005D
:1042A80008B5024B1B685B6C019308BD480203000C
:1042B80008B5024B1B68DB6C019308BD480203007C
:1042C80008B5024B1B685B6D019308BD48020300EB
:1042D80008B5024B1B685B68019308BD1802030010
:1042E80008B5024B1B68DB68019308BD1802030080
:1042F80008B5024B1B685B69019308BD18020300EF
:1043080008B5024B1B681B68019308BD2C0203000B
:1043180008B5024B1B689B68019308BD2C0203007B
:1043280008B5024B1B68DB68019308BD2C0203002B
:1043380008B5024B1B681B69019308BD2C020300DA
:1043480008B5024B1B681B6A019308BD28020300CD
:1043580008B5024B1B685B6A019308BD280203007D
:1043680008B5024B1B689B6A019308BD280203002D
:1043780008B5024B1B68DB6A019308BD28020300DD
:1043880008B5024B1B681B6B019308BD280203008C
:1043980008B5024B1B685B6B019308BD280203003C
:1043A80008B5024B1B681B6C019308BD280203006B
:1043B80008B5024B1B685B69019308BD64020300E2
:1043C80008B5024B1B689B68019308BD680203008F
:1043D80008B5024B1B68DB68019308BD680203003F
:1043E80008B5024B1B68DB69019308BD3002030066
:1043F80008B5024B1B681B6A019308BD3002030015
:1044080008B5024B1B681B68019308BD3C020300FA
:1044180008B5024B1B68DB68019308BD3C0203002A
:1044280008B5024B1B681B69019308BD3C020300D9
:1044380008B5024B1B685B69019308BD3C02030089
:1044480008B5024B1B689B69019308BD3C02030039
:1044580008B5024B1B68DB69019308BD3C020300E9
:1044680008B5024B1B681B6A019308BD3C02030098
:1044780008B5024B1B689B6A019308BD3C02030008
:1044880008B5024B1B681B68019308BD4C0203006A
:1044980008B5024B1B685B68019308BD4C0203001A
:1044A80008B5024B1B681B69019308BD4C02030049
:1044B80008B5024B1B685B69019308BD4C020300F9
:1044C80008B5024B1B689B69019308BD4C020300A9
:1044D80008B5024B1B68DB69019308BD4C02030059
:1044E80008B5024B1B681B6A019308BD4C02030008
:1044F80008B5024B1B685B6B019308BD60020300A3
:1045080008B5024B1B685B68019308BD20020300D5
:1045180008B5024B1B685B69019308BD20020300C4
:1045280008B5024B1B68DB6C019308BD2002030031
:1045380008B5024B1B685B6D019308BD20020300A0
:1045480008B5034B1B68D3F88830019308BD0000F9
:104558002002030008B5034B1B68D3F8943001937D
:1045680008BD00002002030008B5024B1B681B6A47
:10457800019308BD4402030008B5024B1B68DB6BBE
:10458800019308BD4402030008B5024B1B685B6831
:10459800019308BD4002030008B5024B1B689B68E5
:1045A800019308BD4002030008B5024B1B68DB6895
:1045B800019308BD4002030008B5024B1B681B6944
:1045C800019308BD4002030008B5024B1B685B69F4
:1045D800019308BD4002030008B5024B1B689B69A4
:1045E800019308BD4002030008B5024B1B68DB6954
:1045F800019308BD4002030008B5024B1B681B6A03
:10460800019308BD4002030008B5024B1B681B6BF1
:10461800019308BD4002030008B5024B1B685B6BA1
:10462800019308BD4002030008B5024B1B681B68D4
:10463800019308BD1C02030008B5024B1B685B68A8
:10464800019308BD1C02030008B5024B1B68DB6A16
:10465800019308BD1C02030008B5024B1B681B6BC5
:10466800019308BD1C0203000021FFF751BF10B5DC
:10467800836804460BB901F0A4FCC3689847A36893
:104688001BB1032221462046984720461021BDE849
:10469800104001F094BC70470020704710B51421F9
:1046A800044601F08CFC204610BDFFF7F2BC08B5AB
:1046B80082798B799A4206D1062201F0DBFDB0FAA5
:1046C80080F0400908BD002008BD10B5142204463A
:1046D800002101F004FE204610BD000010B50023A3
:1046E8000370044B04461868FFF7E2FD01232370AA
:1046F800204610BDCCE3032010B5037804461BB157
:10470800024B1868FFF7DCFD204610BDCCE3032000
:1047180010B5034601F1140251F8044B43F8044B59
:104728009142F9D110BD2DE9F04188460746FFF7BF
:10473800CCFFB8F1000F02D0002610250FE01022A0
:104748004146384601F0CBFD4AE018F80630A3F19F
:104758003002D1B2092908D8531C14D10136404679
:1047680001F009FE8642F0D333E0A3F16102052A85
:1047780002D8A3F15702EFE7A3F14102052AEDD8C9
:10478800A3F13702E8E71201013DD4B27C55404657
:1047980001F0F1FD01368642E0D218F80620A2F1B8
:1047A8003003D9B209290ED9A2F16103052B02D829
:1047B800A2F1570307E0A2F14103052B94BFA2F130
:1047C80037034FF0FF335AB201331CBF14437C55F3
:1047D800C4E77B190022BB4202D003F8012DFAE797
:1047E80001233B743846BDE8F081F0B58BB1002455
:1047F800E51C8D420FD8661C055D875D974205D183
:104808002E44B14207D31C60681CF0BD01352C440E
:10481800EEE71846F0BD0020F0BD2DE9F743044649
:104828000E461D461746002A3AD00A4601AB016AD1
:10483800FFF7DBFF9DF82830226A03BBF8B1961C0E
:104848002E44361A1F2E2BD8DDF8048008F10209F1
:10485800C8EB0202121A00EB080105EB090092B23C
:104868002144204401F020FD6B1C04F808302A463E
:10487800394604EB090001F00CFD266210E0901C9B
:104888002B181F2B0CD86B1CA354224420623946CA
:10489800567020442A4601F0FCFC226A2A4422620F
:1048A800206A03B0BDE8F0831FB50446034600F153
:1048B8001F02002003F8010B93424FF00001F9D1C9
:1048C80004AA062302F8013D012321620091204633
:1048D8001946FFF7A2FF204604B010BD73B50A467B
:1048E8000E4601AB016A0446FFF77FFF054678B123
:1048F8000198226A2918121A521B2144204401F0F7
:10490800C8FC236A5D1B256231462046FFF7E6FF97
:1049180002B070BD2DE9F84390E850000D461746E7
:10492800984604EBC606A64233D023689A69D9692B
:1049380002EBC10191421BD013689BB1B3F842004E
:10494800A84211D0B3F84400A8420DD0B3F84600ED
:10495800A84209D0B3F84800A84205D0B3F84A00E5
:10496800A84201D00832E5E717B1B8F1000F01D12C
:104978000834D8E7D3F84C90B9F1000FF8D0B3F861
:104988004420AA42F4D11B6D089A41463846C847CC
:10499800EEE7BDE8F88308B500680968C28ACB8AE3
:1049A8009A4204D101310130FFF781FE08BD002091
:1049B80008BD084609B90A4601E0096A0022FFF75E
:1049C80037BC10B50C4611B90A46084606E0012165
:1049D8002046FFF783FF216A00222046BDE81040E9
:1049E800FFF72EBC13B501A8FFF778FE0020FFF7EC
:1049F8002FFC044601A8FFF77FFE204602B010BD39
:104A080073B505460C4601A81646FFF767FE214612
:104A18002846FFF7CEFF002808DB31462846FFF777
:104A2800D0FF002802DB2846FFF7DCFF044601A878
:104A3800FFF762FE204602B070BD83695B68002BF9
:104A480006DCC36958680028D4BF002001207047DD
:104A58000120704730B5836993E8140002EBC40461
:104A6800A242134607D01D68ED8A8D4202F1080262
:104A7800F6D1184630BDC2691368526803EBC2020A
:104A88009A42184606D00468E48A8C4203F1080367
:104A9800F6D130BD002030BD0B68036013B15A68F1
:104AA80001325A60704710B551F8043B044640F88B
:104AB800043BFFF7F1FF204610BD70B5046843685A
:104AC800054604EBC306A64204D0201DFFF726FBCB
:104AD8000834F8E72868FFF7AFFD284670BD38B5F9
:104AE800044610200D78FFF7D2FA20B100230360A6
:104AF8004360836005732060204638BD38B504687C
:104B0800054634B12046FFF7D8FF1021204601F0B2
:104B180056FA284638BD10B5046904F11C00FFF7A1
:104B2800EDFF2046BDE81040FFF7B3BA70B5046842
:104B38004368054604EBC306A64204D0201DFFF7D0
:104B4800EDFA0834F8E700236B6070BD8842F8B5C9
:104B580006460C46154614D9904213D2A2F1080510
:104B68006C1AA1F108070444AF4218D01CB12946B9
:104B78002046FFF798FF281DFFF7D0FA083D083CAC
:104B8800F2E70CD0AC420AD01EB121463046FFF7FE
:104B98008AFF201DFFF7C2FA08340836F2E7F8BD8D
:104BA800F8B50B68DA690E4613685168054603EBD9
:104BB800C101002499420DD018688269C06902EBCE
:104BC800C000904204D052F8087B87F85C40F8E7B0
:104BD8000833EFE733684FF6FF710022D9827F214F
:104BE8001A701976C3F80A20C3F80E20C3F81220E9
:104BF8002C686B6804EBC307BC4216D031462046CC
:104C0800FFF7C9FE08B90834F6E774B1201DFFF7AD
:104C180085FA2B686A6804F1080103EBC202204692
:104C2800FFF794FF6B68013B6B60F8BDF7B504466E
:104C380046686846FFF737FF6768A3689F4214DB3A
:104C48000137002F0BDDF800FFF7EEFC054600B337
:104C580094E8060001EBC202FFF778FF00E00025A8
:104C68002068FFF7E9FC2560A7602368626803EB0A
:104C7800C60503EBC202294605F10800FFF766FFE7
:104C88001DB169462846FFF70EFF6368013363606C
:104C9800012501A8FFF742FA284603B0F0BD70B518
:104CA80004684368054604EBC306A64204D0201DE9
:104CB800FFF734FA0834F8E72868FFF7BDFC284600
:104CC80070BD10B5044638B1FFF7E9FF20460C2146
:104CD800BDE8104001F073B910BD10B5044638B1F5
:104CE800FFF7DDFF20460C21BDE8104001F067B951
:104CF80010BD000037B50025044605604560856095
:104D0800C560056145618561C5612846FFF780FA80
:104D180020B1254A29460A20FFF7EAFB01230DF1B5
:104D2800030101A88DF80330FFF7D9FE2569019B1F
:104D380023610022019235B12846FFF7BEFE1021FB
:104D4800284601F03CF901A8FFF7D8FE0120FFF73B
:104D58009EF9636960611BB10121184601F02FF9C2
:104D68000C20FFF794F9034618B100220260426054
:104D78008260A069A36108B1FFF7A3FF0C20FFF7C9
:104D880086F9034618B10022026042608260E06939
:104D9800E36108B1FFF7A1FF002221460348FFF7AE
:104DA8003FFA204603B030BDE9420D00A94E0D0080
:104DB80010B50A4C2368DB070ED42046FFF76DF9BF
:104DC80050B10748FFF796FF2046FFF76BF9054AF1
:104DD8000549034801F0EEF8014810BDC8E3032077
:104DE800A8E3032088E30320F54D0D0010B5044621
:104DF800C06908B1FFF771FFA06908B1FFF761FF4B
:104E0800606910B1012101F0DAF804F11000FFF730
:104E180075FE204610BD000073B50025056045608D
:104E280006462020FFF733F90446B0B1034601A92E
:104E380003F8015BC0F801505D604FF6FF73C38251
:104E48007F23C0F80A50C0F80E50C0F812500376FD
:104E58001C308DF80450FFF742FE00231420019304
:104E6800FFF715F928B1012343608360064B0360FF
:104E7800046173683460706001A80193FFF74EF90C
:104E8800304602B070BD00BFFC630D0013B54FF093
:104E9800000101AA0446FFF7BFFF204602B010BD7B
:104EA800F0B504468BB00D46002900F0A58003A894
:104EB800FFF714FC6368033B072B00F29A80DFE8D6
:104EC80003F0044498989898808B06A8FFF7DEFFB3
:104ED800069BA2899A8262895A8222891A82228929
:104EE800DA81228BDA822246A17D52F8100F0490D3
:104EF8009288ADF814200498BDF81420D971C3F82D
:104F08000100A3F805202B6813B1A96806A89847E3
:104F1800A37B012B069B0BBF022201221A701A7079
:104F28000CBFAC69EC696368002B0ADC06A908A809
:104F3800FFF7B9FD08A92046FFF778FE09A8FFF793
:104F4800EDF807A8FFF7EAF853E0A1892846FFF72C
:104F580081FD044600284CD06B680BB1E96898477E
:104F680023681A78012A04D12146E869FFF718FE58
:104F78003FE0DA69A86913685168002603EBC101AC
:104F880099420DD01D68AA69ED6902EBC5059542E5
:104F980004D052F8087B87F85C60F8E70833EFE73D
:104FA80023684FF6FF710022D9827F211A70197683
:104FB800C3F80A20C3F80E20C3F81220FFF7B6FD85
:104FC80017E0A18A2846FFF745FD90B1E18A0090D5
:104FD800E368226928690AE0A18A2846FFF73AFDB2
:104FE80038B10568E18A0090E3682269E869FFF74B
:104FF80091FC03A8FFF780FB0BB0F0BD024800232B
:105008000360FFF74DB900BFCCE3032070470020D1
:10501800704710B51021044600F0D1FF204610BD9E
:1050280008B508B1FFF7F5FF08BD10B58368044659
:1050380013B1032201469847204610BD38B5C4680D
:10504800ECB12378022B02D1E068FFF7F5FA656826
:1050580035B12846FFF7E9FF1021284600F0AFFFD9
:10506800A56835B12846FFF7E0FF1021284600F073
:10507800A6FF20461421BDE8384000F0A0BF38BD87
:1050880013B5044691E8050000234B600B602060CF
:10509800626001A801930093FFF740F8204602B030
:1050A80010BDF7B50C4602AD54F8043B45F8083D71
:1050B80006460F4601A82146FFF7EEFC2946304672
:1050C800FFF7DEFF01A8FFF729F82046FFF726F8CB
:1050D8003846082100F073FF304603B0F0BD13B521
:1050E8000B46044603C88DE8030093E8030084E8F0
:1050F80003009DE8030083E8030002B010BD826846
:1051080010B50AB900F05DFFC368BDE81040184744
:1051180008B5006800F11001FFF7F1FF08BD8268CB
:1051280010B50AB900F04DFFC368BDE81040184734
:1051380008B5006800F11001FFF7F1FF08BD38B5A8
:10514800002383608B6804460D462BB102229847E2
:10515800EB68E360AB68A360204638BD2DE9F041F9
:105168004FF69C7386B00468B1F904208B80002345
:105178000F688DF800300B604FF00200D4E84F1F25
:10518800994203D1C4E8450F002DF7D102D08DF81C
:1051980000106BE014F10C051EBFE76022821F4669
:1051A8000123BFF35F8F0020637004F10803BFF38E
:1051B8005F8F53E8006F43E80002002AF9D1BFF37C
:1051C8005F8F002E52D0FFF7ABF920B12946304649
:1051D800FFF795FF43E031466846FFF7B0FFE06808
:1051E800B4F9105008B101F0ABF804901020ADF8F4
:1051F8001450FEF74CFF054630B34FF00008C0F8D6
:1052080008801820FEF743FF0446C0B1C0F80880A4
:1052180001466846FFF763FF029BA268A360039BF1
:105228000292E268E360BDF81430A3824FF69C73E3
:10523800ADF81430049B03922361CDF810800E4B17
:10524800EB600E4B2C60AB600498FFF7F5F96846ED
:10525800FFF7EBFE002229460948FFF769F93046B7
:10526800FFF7E3FE1021304600F0A9FE3846FFF7AD
:10527800E3F906B0BDE8F08119510D0075530D0032
:1052880077460D002DE9F04F8BB007AD4FF0000BBE
:105298000646994614200C230F4690469DF850A0C8
:1052A800C5F804B0C5F808B00793FEF7F0FE044649
:1052B80038B180F800B080F801B0C0F804B0C0F888
:1052C80008B00023102003940493FEF7E0FE28B1F1
:1052D800012343608360234B0360C4600490224B26
:1052E80008930820FEF7D3FE044628B1039B40F834
:1052F800043B04A9FFF7D0FB00955FFA8AF34A46FE
:10530800414638460994FFF72FF9B8B9039B5B78F3
:1053180003F0FF0293B94FF69C7305A903A8059201
:10532800ADF81830FFF71AFF0598FFF785F905A8BB
:105338000999FFF7B6FE06A8FEF7F0FE039B059352
:1053480004A906A8FFF7A8FB05A93046FFF798FEB1
:1053580006A8FEF7E3FE04A8FEF7E0FE30460BB011
:10536800BDE8F08F18640D00E1540D00022AF8B56D
:10537800044606D0032A17D0012A21D10B680360FE
:105388001EE018200E68FEF782FE054650B1314631
:10539800FFF7D5FE3069B6F9147008B100F0D0FFF8
:1053A8002861AF8225600BE004684CB12069FFF7E3
:1053B80043F92046FFF739FE1821204600F0FFFD8B
:1053C8000020F8BD38B5002383608B6804460D467D
:1053D8002BB102229847EB68E360AB68A3602046D4
:1053E80038BD022A70B5044606D0032A11D0012A16
:1053F80018D10B68036015E014200E68FEF747FE0D
:10540800054620B13146FFF7DDFF337C2B7425605C
:1054180008E0046834B12046FFF707FE142120464F
:1054280000F0CDFD002070BDF0B5002387B00C461C
:10543800BFF35F8F50E8006F40E80032002AF9D1CF
:10544800BFF35F8F002E3FD01846FFF769F8074675
:1054580020B121463046FFF762FE2EE0314601A812
:10546800FFF7B0FF23788DF814301020FEF70FFEF9
:105478000546D0B187601420FEF709FE044678B1CE
:105488008760014601A8FFF72AFE039BA268A36074
:10549800049B0392E268E3609DF81430049223743D
:1054A8000A4BEB600A4B2C60AB6001A8FFF7BDFD0F
:1054B800002229460748FFF73BF83046FFF7B5FDBD
:1054C8001021304600F07BFD07B0F0BD39510D00CA
:1054D800EB530D0077460D0030B585B004460D46F8
:1054E80068461146FFF7DDFD7CB124B228460DB1B0
:1054F80000F026FF029002A96846ADF80C40FFF7BD
:105508002DFE0298FFF798F81DE000988DF80840E6
:105518004FF00102D0E84F3FA34203D1C0E8412F2A
:105528000029F7D102D08DF808300CE010F10C01F9
:105538004FF0010318BF0373BFF35F8F043000F807
:10554800033CFFF771FF01A8FEF7E8FD05B030BD89
:10555800002211464068FFF74FB800221146406804
:10556800FFF75AB800224068FFF74EB8002281F0D2
:1055780001014068FFF738B800231A461946406809
:10558800FFF72AB800231A4619464068FFF71CB8E7
:10559800002211464068FFF70FB800221146406804
:1055A800FEF7FABF002202214068FEF7FDBF002384
:1055B8001A464068FEF7E8BF024B03225A60024AC7
:1055C8001A607047D0E3032034640D007047F8B5C3
:1055D800064615460C468F18BC4206D0336814F8A8
:1055E800011B9B6830469847F6E72846F8BD00221D
:1055F800007CFEF7A5BE0021007CFEF7A9BE0021B5
:10560800007CFEF7ADBE0021007CFEF7B1BE002194
:10561800007CFEF7B5BE10B51421044600F0CFFC9F
:10562800204610BD10B504464FF47A730846A360AF
:105638000021044B207461602360FEF7B1FE204610
:1056480010BD00BF68640D000021007CFEF7A0BEFD
:10565800704710B51821044600F0B1FC204610BD73
:10566800F0B5037D062B8DB00E4600F104074FF010
:10567800000402D000F1080518E00CAD394605F821
:10568800304D2F232A460A20FEF792FE284600F0C6
:1056980072FE33680246DB682946304698470FE0B9
:1056A80024B12E21304600F0C7F9044415F8011D35
:1056B8000A22304600F0F0F9BD420444F0D12046F9
:1056C8000DB0F0BD10B5054B0446112240F8043B5F
:1056D800002100F004FE204610BD00BF90640D00BC
:1056E8000346074A10B543F8042B01F1100251F89C
:1056F800044B43F8044B9142F9D10A781A7010BD53
:1057080090640D0010B59DF8084044EA032343EA6D
:10571800024242EA016104234160037510BD37B5B6
:105728000D788B784A78C97800912946FFF7EAFF07
:1057380003B030BD014B024A1A607047D8E303201A
:1057480051650D00002211464068FEF755BF002242
:1057580011464068FEF760BF00224068FEF754BF5C
:10576800002281F001014068FEF73EBF00231A467F
:1057780019464068FEF730BF00231A4619464068AC
:10578800FEF722BF002211464068FEF715BF00222F
:1057980011464068FEF700BF002202214068FEF76C
:1057A80003BF00231A464068FEF7EEBE38B505462B
:1057B80088B104684CB1A3681BB103222146204676
:1057C80098471021204600F0FAFB28461421BDE82E
:1057D800384000F0F4BB38BD10B103685B68184767
:1057E800704710B503680446BBB15868FEF738FD2A
:1057F80078B923685A7C12B95868FEF739FD2368CE
:105808005868FEF73DFD20680023236028B1FFF7A4
:10581800CDFF206808B1FFF7C9FF204610BD000082
:1058280038B50C4B03600446D0F8CC0108B1FEF73C
:1058380032FCD4F8C45135B12846FFF7D2FF042111
:10584800284600F0BCFBA06808B1FFF7C5FF20465A
:1058580038BD00BF84650D0038B50D4C0D4B236075
:105868000025022304F5E4706360A560C4F8C45100
:10587800C4F8C851FEF714FD074BC4F8CC51236097
:105888002046064A0649BDE8384000F093BB00BFF1
:10589800DCE30320B8650D0084650D0088E3032070
:1058A80029580D0000231A464068FEF76DBE0022F5
:1058B80002214068FEF778BE002211464068FEF7D4
:1058C8006BBE002211464068FEF776BE00231A46DA
:1058D80019464068FEF778BE00231A461946406804
:1058E800FEF77ABE002281F001014068FEF77CBE17
:1058F80000224068FEF788BE002211464068FEF785
:105908008BBE002211464068FEF776BE2DE9F043B3
:10591800002495B016460D460746FFF7D3FE2146EC
:1059280020220CA8009400F0DAFC40230C932146B6
:105938006B460CAA3046FEF74BFD0446002844D1BE
:10594800024601216868FEF737FE0221804622469A
:105958006868FEF731FE009E81462146002E34D04D
:10596800002932D17368022B02D00A2B09D02AE011
:10597800B8F1000F27D0716938460431FFF7CFFE20
:1059880020E0B9F1000F1ED07469112201A800F0BF
:10599800A6FC06238DF8143001AD04F10803183471
:1059A800186859682A4603C20833A3421546F7D136
:1059B80001A906A807ADFFF793FE0FCD3C1D0FC444
:1059C8002B6823700121F669C8E70098FEF7F8FCF8
:1059D800384615B0BDE8F083024B034A1A6000222E
:1059E8005A607047ACE50320B8650D00F8B5064667
:1059F8000D468F180024BD420CD0336815F8011BE2
:105A08009B6830469847002801DB0444F3E7002CE4
:105A180008BF04462046F8BD70B505460C46084642
:105A280049B100F0A8FC2B68024621462846DB68ED
:105A3800BDE87040184770BD03689B68184730B5CB
:105A48008BB00B4600218DF82410012A98BF0A223A
:105A58000DF12304B3FBF2F505FB123303F0FF034A
:105A6800092B94BF30333733DBB2214604F80139B0
:105A78002B46002DEED1FFF7CFFF0BB030BD10B491
:105A88002AB903685DF8044B9B68C9B21847D2B2BB
:105A98005DF8044BFFF7D3BFFFF7F1BF10B504461D
:105AA800FFF7C3FA204610BD0348044A04490023FF
:105AB800836000F07FBA00BFB4E5032088E30320C9
:105AC800A55A0D00704710B51021044600F077FA6A
:105AD800204610BD70B5084B0360044600250E46ED
:105AE80040F80C5FFEF7D4FB30462671FEF778FCD1
:105AF800A560204670BD00BFEC650D000079FEF77B
:105B080077BC0000044B00204FF6FF7218705880D5
:105B18009A80FEF7F5BC00BFC4E50320024B1A6863
:105B2800024B1A60704700BF20E30320CCE5032036
:105B380070474174704708B5007CFEF799FC20EA6D
:105B4800E07008BD08B5007CFEF76AFC20EAE0704A
:105B580008BD08B5007CFEF773FC30EA200028BFBA
:105B68004FF0FF3008BD08B5007CFEF761FC30EA55
:105B7800200028BF4FF0FF3008BD007CFEF768BC4E
:105B880010B51421044600F01AFA204610BD70B56D
:105B9800457C04460E4625B9007CFEF769FC0028C2
:105BA80005DD3146207CBDE87040FEF731BC284653
:105BB80070BD000010B50446084611460022626018
:105BC8004FF47A72A260054A22600122207462743E
:105BD8001A46FEF715FC204610BD00BF28660D00CA
:105BE800007CFEF73DBC000038B50C4D296811F06B
:105BF800010411D12846FEF750FA68B1084A094B4A
:105C080009482146FFF7D6FF2846FEF74BFA074A10
:105C18000749054800F0CEF9034838BD68E6032077
:105C28006CE60320E4E50320D0E5032088E30320A5
:105C3800395B0D0041747047704708B50021007C3E
:105C4800FEF73EFC30EA200028BF4FF0FF3008BDC9
:105C580008B50121007CFEF733FC30EA200028BF9C
:105C68004FF0FF3008BD08B5007CFEF721FC20EAA4
:105C7800E07008BD08B5007CFEF712FC20EAE07071
:105C880008BD007CFEF72CBC10B51421044600F0BA
:105C980096F9204610BD38B50446007C0D46FEF73F
:105CA80007FC002801DC607C28B12946207CFEF72F
:105CB8000FFC20EAE07038BD10B50446002363608D
:105CC8004FF47A73A360054B2360012308462174BF
:105CD80063741146FEF7D4FB204610BD58660D00CC
:105CE8000022007CFEF7D4BB10B514220446002124
:105CF80000F0F5FA204610BD30B50E4D87B001A86A
:105D0800FFF7F2FF296811F0010410D12846FEF7C9
:105D1800C4F960B101AA21460748FFF7CDFF28461C
:105D2800FEF7C0F9054A0649034800F043F902485E
:105D380007B030BDF0E60320F4E6032088E3032033
:105D4800415C0D00002211464068FEF735BC002278
:105D580011464068FEF750BC002211464068FEF725
:105D68005BBC00224068FEF74FBC002281F00101B5
:105D78004068FEF739BC00231A4619464068FEF70A
:105D88002BBC00231A4619464068FEF71DBC0022AA
:105D980011464068FEF700BC002202214068FEF769
:105DA80003BC00231A464068FEF7EEBB024B0422F0
:105DB8005A60024A1A60704708E7032088660D0097
:105DC80008B50C4B33B1FFF797FF03681B69984779
:105DD800002809DC084B63B1FFF706FF03681B695D
:105DE8009847002803DC08BDAFF30080F2E7AFF363
:105DF800008008BD000000000000000008B5FFF7A3
:105E0800DFFFFEF775FA014B186008BD14E70320A1
:105E180007B5002300931A466FF07701FEF79AFB47
:105E280003B05DF804FB000007B543880A2B08D0CF
:105E3800502B09D1094B1B683BB103B05DF804EB4B
:105E48001847FFF7E5FF06E0002300931A466FF0B6
:105E58007701FEF77FFB03B05DF804FB10E7032032
:105E680010B5FEF735FA044600F042FA074B13B1B5
:105E78002046AFF3008000210448FEF77DFB002197
:105E88000348BDE81040FEF75BBB00BF0000000000
:105E9800315E0D0010B504460F48FFF72FFE28B1FC
:105EA800A4F10B03022B01D8002010BD00F040F82C
:105EB800FFF7CAFB08B1012CF6D9FFF795FEFFF7EB
:105EC8008FFE18B1A4F10903012BEDD9232C8CBF47
:105ED8000020012010BD00BF30E70320232838B57B
:105EE80004460D460AD8FF2908D0FFF7D3FF28B18A
:105EF80029462046BDE83840FEF70ABA38BD38B50D
:105F080004460D46FEF70CFAFF2810D0062804D8E0
:105F18004D2323FA00F0C30709D42046FFF7BAFF40
:105F280028B129462046BDE83840FEF701BA38BDF9
:105F380038B50B4D296811F001040FD12846FEF73A
:105F4800ACF858B121460748FFF76CFB2846FEF726
:105F5800A9F8054A0549034800F02CF8014838BD5E
:105F680018E703201CE7032088E30320D5550D001C
:105F780070B50C4C0C4E0D4D00212046FFF7AAFDC4
:105F880020460B4C3246294600F014F801212046E1
:105F9800FFF7A0FD324629462046BDE8704000F0D4
:105FA80009B800BF30E7032088E30320CD5A0D006D
:105FB80040E703200B460146184600F04DB9FEF7AE
:105FC80068B808B5FEF740FB244B1A68D0075CBFD9
:105FD80001221A60224B1A68D1075CBF01221A609D
:105FE800204B1A68D2075CBF01221A601E4B1A6840
:105FF800D0075CBF01221A601C4B1A68D1075CBF2E
:1060080001221A601A4B1A68D2075CBF01221A6073
:10601800184B1A68D0075CBF01221A60164B1A6821
:10602800D1075CBF01221A60144B1A68D2075CBF03
:1060380001221A60124B1A68D0075CBF01221A604D
:10604800104B1A68D1075CBF01221A600E4B1A6800
:10605800D2075CBF01221A60704700BF7CE70320AB
:1060680078E7032074E7032070E703206CE7032038
:1060780068E7032064E7032060E703205CE7032068
:1060880058E7032054E7032050E70320184B1A6809
:10609800D1075CBF01221A60164B1A68D2075CBF91
:1060A80001221A60144B1A68D0075CBF01221A60DB
:1060B800124B1A68D1075CBF01221A60104B1A688C
:1060C800D2075CBF01221A600E4B1A68D0075CBF6A
:1060D80001221A600C4B1A68D1075CBF01221A60B2
:1060E8000A4B1A68D2075CBF01221A60704700BFCA
:1060F8009CE7032098E7032094E7032090E7032018
:106108008CE7032088E7032084E7032080E7032047
:10611800184B1A68D1075CBF01221A60164B1A681F
:10612800D2075CBF01221A60144B1A68D0075CBF03
:1061380001221A60124B1A68D1075CBF01221A604B
:10614800104B1A68D2075CBF01221A600E4B1A68FE
:10615800D0075CBF01221A600C4B1A68D1075CBFDC
:1061680001221A600A4B1A68D2075CBF01221A6022
:10617800704700BFBCE70320B8E70320B4E703205B
:10618800B0E70320ACE70320A8E70320A4E7032037
:10619800A0E70320244B1A68D0075CBF01221A60CD
:1061A800224B1A68D1075CBF01221A60204B1A687B
:1061B800D2075CBF01221A601E4B1A68D0075CBF69
:1061C80001221A601C4B1A68D1075CBF01221A60B1
:1061D8001A4B1A68D2075CBF01221A60184B1A685A
:1061E800D0075CBF01221A60164B1A68D1075CBF42
:1061F80001221A60144B1A68D2075CBF01221A6088
:10620800124B1A68D0075CBF01221A60104B1A683B
:10621800D1075CBF01221A600E4B1A68D2075CBF17
:1062280001221A60704700BFECE70320E8E703206B
:10623800E4E70320E0E70320DCE70320D8E70320B6
:10624800D4E70320D0E70320CCE70320C8E70320E6
:10625800C4E70320C0E7032010B5054C13462CB152
:106268000A4601460220AFF3008010BD204610BD4B
:106278000000000010B501390244904207D010F820
:10628800013B11F8014FA342F7D0181B10BD0020A5
:1062980010BD10B5431E0A44914204D011F8014BB9
:1062A80003F8014FF8E710BD884210B501EB02036F
:1062B80001D8421E0BE09842FBD28118D21AD34271
:1062C80004D013F8014D01F8014DF8E710BD9942CB
:1062D80004D011F8014B02F8014FF8E710BD024451
:1062E8000346934202D003F8011BFAE77047000007
:1062F80038B5124B1C68A36B0546D3B91820FEF7B6
:1063080093F943F20E33A06303804AF6CD334380FA
:1063180041F2342383804EF26D63C3804DF6EC6303
:106328000381052343810B23838101220023C0E9D4
:106338000423A36B00221D615A6138BD84E3032046
:10634800024B0146186800F003B800BF84E303203D
:1063580070B5064608460C4600F00DF8451C29465F
:106368003046FEF779F9064618B12A462146FFF766
:1063780090FF304670BD034613F8012B002AFBD16D
:10638800181A0138704700001D400D0059400D00D3
:1063980085400D0089400D00000000005465616DC6
:1063A80054776F0074632D6374662F706F696E7411
:1063B8002D73636F72656400313037333637616629
:1063C8002D383334612D343639302D626663342DDF
:1063D8003133336336653663613665340074632D53
:1063E8006374662F75756964000000000000000082
:1063F800000000009F460D00A5460D001F4B0D0034
:10640800B3460D00A1460D0000000000000000008A
:1064180015500D001B500D0045500D0029500D0062
:1064280017500D000000000000000000B7550D00D7
:10643800AD550D00A3550D0099550D008D550D0056
:1064480081550D0075550D006D550D0063550D00F6
:1064580059550D0015590D000000000000000000FE
:10646800D5550D001F560D00F7550D00D7550D00D9
:10647800FF550D0007560D000F560D0017560D005D
:10648800000000000000000069560D0059560D007C
:106498005B560D0066006C6E00666E00636F646587
:1064A8000064657461696C000D0A0025303130752F
:1064B80020005D20002564002C200028293A2000B7
:1064C800205B00636F6465203D20002569006465DA
:1064D8007461696C73203D200062617564005365C6
:1064E8007269616C0053657269616C31007479700E
:1064F8006500706172616D00636D6400686E6400B0
:106508007374726D0066696C74006C766C006164FB
:106518006448616E646C65720072656D6F7665487B
:10652800616E646C657200656E756D48616E646C51
:10653800657273004A534F4E53747265616D4C6FA8
:106548006748616E646C657200617070006E6F6E92
:106558006500747261636500696E666F00776172C9
:106568006E006572726F720070616E696300616CB3
:106578006C0000000000000000000000AB570D0098
:10658800A1570D0097570D008D570D0081570D002D
:1065980075570D0069570D0061570D0057570D00CD
:1065A8004D570D0015590D000000000000000000B7
:1065B800AD580D00B7580D00C1580D00CB580D004F
:1065C800D5580D00E1580D00ED580D00F9580D0093
:1065D80001590D000B590D0015590D000000000060
:1065E80000000000CD5A0D00CF5A0D005A00252B8F
:1065F8003033643A253032750025592D256D2D2507
:10660800645425483A254D3A2553257A0061736329
:1066180074696D65000000000000000000000000C3
:10662800395B0D00895B0D00975B0D00F5590D0076
:106638004D5B0D006F5B0D005B5B0D00835B0D0018
:106648003B5B0D003F5B0D000000000000000000F8
:10665800415C0D00915C0D009F5C0D00F5590D002B
:106668007D5C0D00435C0D00595C0D008B5C0D00DA
:106678006F5C0D003D5C0D00000000000000000094
:10668800AB5D0D00A15D0D00975D0D004D5D0D002A
:106698008B5D0D007F5D0D00735D0D006B5D0D0062
:1066A800615D0D00575D0D0015590D0000000000DB
:1066B80000000000000000000000000000000000D2
:1066C80000000000000000000000000000000000C2
:1066D80000000000000000000000000000000000B2
:1066E80000000000000000000000000000000000A2
:1066F8000000000000000000000000000000000092
:10670800000000000000000000000000430000003E
:10671800F5410D0005500D00C1550D003D570D0008
:1067280061580D00E1590D00B15A0D000D5B0D00C7
:10673800255B0D00B55D0D00795F0D00D15F0D0083
:1067480095600D0019610D009D610D0000000000AD
:08675800000000000000000039
:1067600015660D0000000000B4660D00D4660D0033
:10677000F4660D00000000000000000000000000B2
:106780000000000014670D00000000000000000081
:1067900000000000000000000000000000000000F9
:1067A00000000000000000000000000000000000E9
:1067B00000000000000000000000000000000000D9
:0867C0000000000024E30320A7
:1067C800FFFFFFFF00000102030405060708090A8E
:1067D8000B0C0D0E0F101112131415161718191A89
:0867E8001B1C1D1E1F202800D0
:0467F0007856341291
:04000003D0004018D1
:00000001FF
