:02000002D0002C
:1040000000400D00DC8B0D00000006000C000501D7
:08401000040115050000000089
:1040180080840D0009480A49884208B505D0094A34
:10402800824202D0121A04F0EEF80748074A00212B
:10403800121A04F00EF9014808BD00BFD4D80320B5
:10404800408B0D0048D9032048D90320F0E703200E
:1040580070B503F0A9FE074C074BE41AA408002525
:104068001E46A54204D056F8253098470135F8E792
:1040780070BD00BF408B0D00048B0D0000F078B8B8
:1040880008B500F079F8BDE8084003F05BBE00F021
:1040980097BC00F09DBC00F09BBC000008B5034A2B
:1040A80000210C2000F0E8FBFEE700BF41460D00B0
:1040B8000078B0FA80F04009704701230370704718
:1040C8007047006A0368DB68184700000A4B10B5A0
:1040D8000446036002F00CFD214602F0F9FE03F0ED
:1040E800AFFD03F0A1FD2046044B40F8043B02F06D
:1040F800F5FD204610BD00BFB4840D009C840D0062
:1041080010B50446FFF7E2FF2046242103F0FBFE2A
:10411800204610BD0EB400B58CB00DAA202352F86D
:10412800041B03928DE8060004930168002304AA87
:104138001E20059300F0B0FB0CB05DF804EB03B053
:1041480070470EB400B58CB00DAA202352F8041B9A
:1041580003928DE8060004930168002304AA322024
:10416800059300F099FB0CB05DF804EB03B07047C1
:104178000121072003F056BE2DE9F04F554C237856
:1041880089B0A346002B7ED101F0DAF900F0D6FF02
:10419800054620B101F0D4F901F08CF897E04E49BA
:1041A8004E484F4FDFF83C91FFF7B4FF01F0C8F9D4
:1041B8001E224C4900F098FF4B490246804647486A
:1041C800FFF7A8FFBA46454580F28180542414229F
:1041D800002103A86C4304F03CF804F10800012214
:1041E80003A9484400F01EFE4049064602463B48E3
:1041F800FFF790FF002E44D03D4903A800F014FDBE
:1042080000283ED03B493548FFF784FF01F098F974
:1042180009EB0402014601A801F02CFC019B3B605C
:10422800029E7B689E4208D016B1736801337360A2
:10423800DAF804409CBBCAF8046001A800F0CFFF7C
:10424800274800F03BFF00283CD001248BF80040B1
:1042580000F0FAF9284B294918602048FFF75AFF5F
:104268002146072003F0EFFD4FF4FA6000F0C8FB89
:104278000021072003F0E7FD01F062F9184900F07A
:104288006AFF01359FE700F0DFF91B4B1B6803F558
:104298006A43603398421AD90023237017E0636891
:1042A800013B6360002BC6D1236820469B68984772
:1042B800A368013BA360002BBDD123682046DB68BF
:1042C8009847B8E70E490548FFF73BFFD9E709B01B
:1042D800BDE8F08F4CD90320C4840D00D4E303203B
:1042E80060E3032088D90320DC840D00E6840D00F8
:1042F80074D9032032850D0068E30320FD840D0086
:1043080018850D0070B5046843681426054606FB39
:104318000346A64204D0204603F005FB1434F8E710
:10432800286800F055FB284670BD8842F8B5064657
:104338000C46154616D9904215D2A2F114056C1AEE
:10434800A1F114070444AF421CD02CB129462046E1
:1043580003F0D9FA2B7C2374284603F0E4FA143DC1
:10436800143CF0E70ED0AC420CD02EB121463046BA
:1043780003F0C9FA237C3374204603F0D4FA1434CA
:104388001436F0E7F8BD2DE9F041002303604360DF
:1043980083604E689E4204460F4624DD4FF01408A1
:1043A80008FB06F000F00CFB0546E0B194E80600B7
:1043B80008FB0212FFF7B9FF206800F009FB25602F
:1043C800A6603E687B6808FB0368464509D02DB1A6
:1043D8003146284603F010FB337C2B741436143511
:1043E800F3E77B6863602046BDE8F08170B58CB068
:1043F800002400F031F900940194029403F020FCA9
:104408006946064603A8284DFFF7BDFF03A906A87D
:10441800FFF7B9FF254B2B6006A909A8FFF7B3FFE3
:1044280009AA0121281D02F0B6FE09A8FFF76AFFB4
:1044380006A8FFF767FF1E4B2B602E6203A8FFF745
:1044480061FF1C4B2B6003F0FBFB4FF4165103F08C
:10445800E7FB02F04DFB294602F030FE6846FFF705
:1044680051FF154A1549284603F048FD14491548D7
:10447800154D00F060FB40F6D81604F108002844FA
:1044880000F053FC04F12C002844543400F04DFC97
:10449800B442F2D10D4801F0E3FA074A0C490B483F
:1044A80003F02CFD0CB070BD50D903209C840D0086
:1044B8003C880D00B4840D0048D90320D5400D0078
:1044C80058850D0074D9032088D9032060E30320A0
:1044D800E7510D0008B5024B1B689B68019308BDA6
:1044E8007802030008B5024B1B685B69019308BD9D
:1044F8007802030008B5024B1B68DB6F019308BD07
:104508007802030008B5034B1B68D3F88430019385
:1045180008BD00007802030008B5034B1B68D3F8F8
:104528008830019308BD00007802030008B5034BEA
:104538001B68D3F89830019308BD00007802030087
:1045480008B5034B1B68D3F8A830019308BD0000D9
:104558007802030008B5034B1B68D3F8AC3001930D
:1045680008BD00007802030008B5034B1B68D3F8A8
:10457800BC30019308BD00007802030008B5034B66
:104588001B68D3F8C430019308BD0000780203000B
:1045980008B5034B1B68D3F8D430019308BD00005D
:1045A8007802030008B5034B1B68D3F8E030019389
:1045B80008BD00007802030008B5024B1B689B6821
:1045C800019308BD4802030008B5024B1B681B692C
:1045D800019308BD4802030008B5024B1B685B69DC
:1045E800019308BD4802030008B5024B1B681B6B0A
:1045F800019308BD4802030008B5024B1B685B6CB9
:10460800019308BD4802030008B5024B1B68DB6C28
:10461800019308BD4802030008B5024B1B685B6D97
:10462800019308BD4802030008B5024B1B685B688C
:10463800019308BD1802030008B5024B1B68DB682C
:10464800019308BD1802030008B5024B1B685B699B
:10465800019308BD1802030008B5024B1B681B68CC
:10466800019308BD2C02030008B5024B1B689B6828
:10467800019308BD2C02030008B5024B1B68DB68D8
:10468800019308BD2C02030008B5024B1B681B6987
:10469800019308BD2C02030008B5024B1B681B6A76
:1046A800019308BD2802030008B5024B1B685B6A2A
:1046B800019308BD2802030008B5024B1B689B6ADA
:1046C800019308BD2802030008B5024B1B68DB6A8A
:1046D800019308BD2802030008B5024B1B681B6B39
:1046E800019308BD2802030008B5024B1B685B6BE9
:1046F800019308BD2802030008B5024B1B681B6C18
:10470800019308BD2802030008B5024B1B685B69CA
:10471800019308BD6402030008B5024B1B689B683F
:10472800019308BD6802030008B5024B1B68DB68EB
:10473800019308BD6802030008B5024B1B68DB69DA
:10474800019308BD3002030008B5024B1B681B6AC1
:10475800019308BD3002030008B5024B1B681B68B3
:10476800019308BD3C02030008B5024B1B689B6817
:10477800019308BD3C02030008B5024B1B68DB68C7
:10478800019308BD3C02030008B5024B1B681B6976
:10479800019308BD3C02030008B5024B1B685B6926
:1047A800019308BD3C02030008B5024B1B689B69D6
:1047B800019308BD3C02030008B5024B1B68DB6986
:1047C800019308BD3C02030008B5024B1B681B6A35
:1047D800019308BD3C02030008B5024B1B689B6AA5
:1047E800019308BD3C02030008B5024B1B68DB6A55
:1047F800019308BD3C02030008B5024B1B681B6807
:10480800019308BD4C02030008B5024B1B685B68A6
:10481800019308BD4C02030008B5024B1B689B6856
:10482800019308BD4C02030008B5024B1B681B69C5
:10483800019308BD4C02030008B5024B1B685B6975
:10484800019308BD4C02030008B5024B1B689B6925
:10485800019308BD4C02030008B5024B1B68DB69D5
:10486800019308BD4C02030008B5024B1B681B6A84
:10487800019308BD4C02030008B5024B1B685B6B33
:10488800019308BD6002030008B5024B1B681B6D4D
:10489800019308BD6002030008B5024B1B685B6DFD
:1048A800019308BD6002030008B5024B1B68DB6E6C
:1048B800019308BD6002030008B5024B1B681B6F1B
:1048C800019308BD6002030008B5024B1B685B68D2
:1048D800019308BD2002030008B5024B1B685B6901
:1048E800019308BD2002030008B5034B1B68D3F8E9
:1048F8008830019308BD00002002030008B5034B6F
:104908001B68D3F89430019308BD0000200203000F
:1049180008B5024B1B68DB6B019308BD440203001A
:1049280008B5024B1B685B68019308BD4002030091
:1049380008B5024B1B689B68019308BD4002030041
:1049480008B5024B1B68DB68019308BD40020300F1
:1049580008B5024B1B681B69019308BD40020300A0
:1049680008B5024B1B685B69019308BD4002030050
:1049780008B5024B1B689B69019308BD4002030000
:1049880008B5024B1B68DB69019308BD40020300B0
:1049980008B5024B1B681B6A019308BD400203005F
:1049A80008B5024B1B681B6B019308BD400203004E
:1049B80008B5024B1B685B6B019308BD40020300FE
:1049C80008B5024B1B681B68019308BD1C02030055
:1049D80008B5024B1B685B68019308BD1C02030005
:1049E80008B5024B1B689B68019308BD1C020300B5
:1049F80008B5024B1B685B6A019308BD1C020300E3
:104A08000021FFF769BF70470020704770470020FA
:104A1800704770470020704710B51421044603F012
:104A280072FA204610BD10B51421044603F06BFA43
:104A3800204610BD10B51421044603F064FA204640
:104A480010BDFFF726BBFFF724BBFFF722BB10B54D
:104A5800036804469B689847A368013BA3602BB989
:104A680023682046DB68BDE81040184710BD08B52C
:104A780082798B799A4206D1062203F0B5FBB0FA07
:104A880080F0400908BD002008BD10B51422044676
:104A9800002103F0DEFB204610BD000010B5002306
:104AA8000370044B04461868FFF7AEFD012323701A
:104AB800204610BD94E3032010B5037804461BB1CB
:104AC800024B1868FFF7A8FD204610BD94E30320A9
:104AD80070B50C4605461646FFF7D7FF2CB91022CD
:104AE8002146284603F0B5FB16E0012E09D12B46D6
:104AF80004F1100254F8041B43F8041B9442F9D142
:104B080008E06A1E0F23E15C02F8011F013BDBB2DB
:104B1800FF2BF8D101232B74284670BD38B5044605
:104B280015461A46FFF7D4FF257301232D0A65732E
:104B38002374204638BD2DE9F04188460746FFF723
:104B4800A4FFB8F1000F02D0002610250FE01022B4
:104B58004146384603F07DFB4AE018F80630A3F1D9
:104B68003002D1B2092908D8531C14D10136404665
:104B780003F0C2FB8642F0D333E0A3F16102052AB9
:104B880002D8A3F15702EFE7A3F14102052AEDD8B5
:104B9800A3F13702E8E71201013DD4B27C55404643
:104BA80003F0AAFB01368642E0D218F80620A2F1EB
:104BB8003003D9B209290ED9A2F16103052B02D815
:104BC800A2F1570307E0A2F14103052B94BFA2F11C
:104BD80037034FF0FF335AB201331CBF14437C55DF
:104BE800C4E77B190022BB4202D003F8012DFAE783
:104BF80001233B743846BDE8F0811FB5037C13F0F0
:104C0800FD0F04460AD010220021684603F021FB5C
:104C180010226946204603F0E7FA00E000880030D9
:104C280018BF012004B010BD10B5047C14F0FD0FAE
:104C380006D0102203F0D8FAB0FA80F0400910BD6F
:104C4800038808881B1A5842584110BD38B50546D4
:104C580001B112B90020286238BD1F2A28BF1F22BF
:104C6800144603F0D0FA2C62204638BDF0B58BB15B
:104C78000024E51C8D420FD8661C055D875D9742B0
:104C880005D12E44B14207D31C60681CF0BD013524
:104C98002C44EEE71846F0BD0020F0BD2DE9F7439F
:104CA80004460E461D461746002A3AD00A4601AB6E
:104CB800016AFFF7DBFF9DF82830226A03BBF8B1D1
:104CC800961C2E44361A1F2E2BD8DDF8048008F1C6
:104CD8000209C8EB0202121A00EB080105EB0900F1
:104CE80092B22144204403F099FA6B1C04F808306E
:104CF8002A46394604EB090003F085FA266210E0DB
:104D0800901C2B181F2B0CD86B1CA3542244206218
:104D18003946567020442A4603F075FA226A2A4416
:104D28002262206A03B0BDE8F0831FB5044603463B
:104D380000F11F02002003F8010B93424FF000011D
:104D4800F9D104AA062302F8013D0123216200914A
:104D580020461946FFF7A2FF204604B010BD2DE9F2
:104D6800F04F002587B006468846174699462C46D8
:104D7800316A8D4252D26B464246491B7019FFF781
:104D880075FF8246002849D04C4547D2042800992F
:104D980023D12944314401A88B7891F803B043EA20
:104DA8000B2BFFF772FE0DF1180E00230EF8043DD1
:104DB800142304F1010CADF804B001AA03FB047438
:104DC800134603CB7345206061601A4604F108045A
:104DD800F6D11868206064461CE012281AD1023106
:104DE80029440122314401A8FFF772FE142304F17B
:104DF800010E01AA03FB04740DEB030C134603CB4D
:104E08006345206061601A4604F10804F6D1186809
:104E180020607446009B53441D44A9E7204607B010
:104E2800BDE8F08F2DE9F04113460D4616460A46B7
:104E380002210746FFF793FF4FF01408331A08FBC7
:104E48000052044603213846FFF789FF0444331B08
:104E580008FB045206213846FFF781FF0444331B40
:104E680008FB045207213846FFF779FF2044BDE8C4
:104E7800F081000038B50025044600F8025BFFF712
:104E880004FE04F11600FFF700FE094904F12C00A6
:104E980002F090FD012384F83C304FF6FF73E5647F
:104EA8002565A4F85430A56584F85C50204638BDC3
:104EB8006E870D002DE9F84390E850000D4617461F
:104EC800984604EBC606A64233D023689A69D96986
:104ED80002EBC10191421BD013689BB1B3F84200A9
:104EE800A84211D0B3F84400A8420DD0B3F8460048
:104EF800A84209D0B3F84800A84205D0B3F84A0040
:104F0800A84201D00832E5E717B1B8F1000F01D186
:104F18000834D8E7D3F84C90B9F1000FF8D0B3F8BB
:104F28004420AA42F4D11B6D089A41463846C84726
:104F3800EEE7BDE8F883F8B590E850000F4604EBBB
:104F4800C606B442254608D0394654F8080BFFF780
:104F58006BFE0028F5D02846F8BD0020F8BD0000FB
:104F68002DE9F04F93B00E4600244E4B00930AAA49
:104F780023464D490B94012020250A95FFF784FC10
:104F880030684A49C08A23463246FFF7EDFA804620
:104F9800002878D13368DFF820B1DB691D685B68C9
:104FA80005EBC3090835A5F10807B94576D01C23D8
:104FB800ADF80E3055F8083C3B499B8AADF82430D3
:104FC80055F8083CDB8AADF82630002420230A93E4
:104FD8000AAA23460120CDF800B00B94FFF754FC31
:104FE8003368334AD88A00943B4603A9FFF7C6FAC8
:104FF80008B1804652E055F8083C9C69DB690746D1
:1050080004EBC30A0834A4F108039A4539D054F8CC
:10501800083CB3F8481091B11B7843F01002102AED
:1050280003D130680023012206E043F02003202B3F
:1050380005D1306800230222C08AFFF7A9FA54F884
:10504800083CB3F84630D3B1202200210AA803F067
:1050580000F954F8083CB3F8461033680AAAD88A0D
:1050680000971F23FFF79EFA48B112AB18440AA90C
:1050780000F8207C54F8080C2C3002F0C8FC0834E6
:10508800C1E708358FE70B4B019000930AAA234626
:1050980005490A9532200B94FFF7F6FB404613B0FA
:1050A800BDE8F08FEF850D00E4850D00295F0D0048
:1050B800035D0D002E860D000B860D000368D88A4F
:1050C8004FF6FF73C01A18BF0120704708B5006873
:1050D8000968C28ACB8A9A4204D101310130FFF7AC
:1050E800C6FC08BD002008BD30B58BB00D4601A830
:1050F8001446FFF7D3FCB5B1ACB1002202A90D48A4
:1051080006940292039204920792089209920595D6
:10511800FFF7F0F90028B8BF04460298A8BF079C1B
:10512800FFF756FC00E0044C01A8FFF7C5FC204639
:105138000BB030BDD5550D00F2FEFFFF83695B68EB
:10514800002B06DCC36958680028D4BF0020012062
:1051580070470120704710B5C2691368526803EBA5
:10516800C202934218460AD00C680068E48AC08AD2
:10517800A04203F10803F4D10021FFF7D7F900207A
:1051880010BD30B5836993E8140002EBC404A24251
:10519800134607D01D68ED8A8D4202F10802F6D148
:1051A800184630BDC2691368526803EBC2029A42BE
:1051B800184606D00468E48A8C4203F10803F6D145
:1051C80030BD002030BD10B50446006828B14368E2
:1051D800013B43600BB9FFF73AFC204610BD10B500
:1051E80004460430FFF7EFFF204610BD0B6803604C
:1051F80013B15A6801325A60704710B551F8043B30
:10520800044640F8043BFFF7F1FF204610BD10B5F7
:1052180051F8043B044640F8043BFFF7E7FF2046FB
:1052280010BD70B504684368054604EBC306A64282
:1052380004D0201DFFF7C7FF0834F8E72868FFF7F8
:10524800C7FB284670BD38B5044610200D78FEF718
:105258001EFF20B100230360436083600573206054
:10526800204638BD38B50468054634B12046FFF7F6
:10527800D8FF1021204602F046FE284638BD10B55A
:10528800046904F11C00FFF7EDFF2046BDE810405B
:10529800FEF7FFBE70B504684368054604EBC30615
:1052A800A64204D0201DFFF78EFF0834F8E700233C
:1052B8006B6070BD70B585692C686B6804EBC306BC
:1052C800A64206D054F8083B0021D88AFFF72EF9E9
:1052D800F6E72846FFF7DEFF002070BD8842F8B5E4
:1052E80006460C46154614D9904213D2A2F1080579
:1052F8006C1AA1F108070444AF4218D01CB1294622
:105308002046FFF784FF281DFFF75DFF083D083C96
:10531800F2E70CD0AC420AD01EB121463046FFF766
:1053280076FF201DFFF74FFF08340836F2E7F8BD77
:10533800F8B50B68DA690E4613685168054603EB41
:10534800C101002499420DD018688269C06902EB36
:10535800C000904204D052F8087B87F85C40F8E718
:105368000833EFE733684FF6FF710022D9827F21B7
:105378001A701976C3F80A20C3F80E20C3F8122051
:105388002C686B6804EBC307BC4216D03146204634
:10539800FFF79CFE08B90834F6E774B1201DFFF743
:1053A80012FF2B686A6804F1080103EBC202204669
:1053B800FFF794FF6B68013B6B60F8BDF7B50446D7
:1053C80046686846FFF723FF6768A3689F4214DBB7
:1053D8000137002F0BDDF800FFF7F2FA054600B39E
:1053E80094E8060001EBC202FFF778FF00E0002511
:1053F8002068FFF7EDFA2560A7602368626803EB71
:10540800C60503EBC202294605F10800FFF766FF4F
:105418001DB169462846FFF7FAFE636801336360E9
:10542800012501A8FFF7CFFE284603B0F0BD70B5EF
:1054380004684368054604EBC306A64204D0201D51
:10544800FFF7C1FE0834F8E72868FFF7C1FA2846D5
:1054580070BD10B5044638B1FFF7E9FF20460C21AE
:10546800BDE8104002F04FBD10BD10B5044638B17C
:10547800FFF7DDFF20460C21BDE8104002F043BDD8
:1054880010BD000037B500250446056045608560FD
:10549800C560056145618561C5612846FFF71AF851
:1054A80020B1254A29460A20FFF7E6F901230DF124
:1054B800030101A88DF80330FFF7C5FE2569019B9C
:1054C80023610022019235B12846FFF7AAFE102178
:1054D800284602F018FD01A8FFF7C4FE0120FEF7D8
:1054E800D6FD636960611BB10121184602F00BFD0E
:1054F8000C20FEF7CCFD034618B100220260426082
:105508008260A069A36108B1FFF7A3FF0C20FEF732
:10551800BEFD034618B10022026042608260E06965
:10552800E36108B1FFF7A1FF002221460348FEF717
:10553800D9FF204603B030BD41460D00055B0D0084
:1055480010B50A4C2368DB070ED42046FEF7B0FDE1
:1055580050B10748FFF796FF2046FEF7AEFD054A13
:105568000549034802F0CAFC014810BD8CE303203A
:105578006CE3032048D9032085550D0010B5044677
:10558800C06908B1FFF771FFA06908B1FFF761FFB3
:10559800606910B1012102F0B6FC04F11000FFF7B8
:1055A80061FE204610BD38B50D1E044606DD5421A7
:1055B80069430068FFF714FA20B938BD0068FFF79F
:1055C80007FA00202060A560012038BD70B5542678
:1055D800C2B0054632460C4603A8002102F039FE47
:1055E80005A8FFF7A2FB0EA8FFF79FFB2A46A97D97
:1055F80052F8100F01909288ADF8082001AB8DF891
:10560800121093E80300EA892B780390ADF8101084
:105618000EA8A9688DF85C30FFF718FBAA8969689D
:1056280005A8FFF713FBA5691DB1E16903A8A84701
:1056380028E0E06898B16369226993423BD25A1C1A
:10564800626106FB0300512203A902F0DCFD6269D6
:1056580023699A422FD32846FEF754FF2BE032469F
:1056680003A918A802F0CFFD324618A92DA865682D
:1056780002F0C9FDA3689D4208DB691C2046FFF7BC
:1056880092FF18B963690133636114E063682268A3
:10569800542606FB052506FB0322521B2946A8199A
:1056A80002F0BCFD32462DA9284602F0ACFD636825
:1056B80001336360E6E742B070BD8842F8B506463C
:1056C8000C46154614D9904213D2A2F108056C1A5B
:1056D800A1F108070444AF4218D01CB1294620465E
:1056E800FFF78BFD281DFFF76EFD083D083CF2E72C
:1056F8000CD0AC420AD01EB121463046FFF77DFDE2
:10570800201DFFF760FD08340836F2E7F8BDF7B54D
:10571800044646686846FFF770FD6768A3689F42BD
:1057280014DB0137002F0BDDF800FFF749F90546B8
:1057380000B394E8060001EBC202FFF7BEFF00E0E9
:1057480000252068FFF744F92560A7602368626890
:1057580003EBC60503EBC202294605F10800FFF773
:10576800ACFF1DB169462846FFF747FD6368013362
:105778006360012501A8FFF726FD284603B0F0BDA8
:105788002DE9F04F0C688BB006460F4614B38569B7
:10579800C36904F1020A05EBC30804F1160BA84516
:1057A80016D0D5F80090504609F10201FFF73CFAEF
:1057B80000286BD009F116015846FFF735FA002882
:1057C80064D094F83C2099F83C309A425ED101E0CC
:1057D80023780BB930485BE094F83C30002B41D07B
:1057E80002342046FFF709FAB0B92C4B2C491A8825
:1057F800013292B21A8001A80123FFF78FF905AD93
:1058080001AA134603CBAB42206061601A4604F13B
:105818000804F6D11868206024242246002101A833
:1058280002F017FDADF806403C6804AAA31C04F179
:10583800120E18685968154603C5083373452A4679
:10584800F7D11868286023788DF80830B38AADF846
:105858002430E36A0393002204F13E0101A8FEF715
:1058680079FEA8B93B689E653B68012283F85C20F5
:10587800394601A8FFF7C1FC01A906F11800FFF796
:1058880046FF02A8FFF79FFC002001E0083586E7E5
:105898000BB0BDE8F08F00BFF2FEFFFF90E30320DE
:1058A800D4850D00884270B515461AD9904219D290
:1058B800A1F10806511A0439151F44182B1F9E42DE
:1058C80025D0042C07D055F8043C44F8043C29465C
:1058D8002046FFF78BFC2846FFF775FC083D083C7F
:1058E800ECE714D00C1D061D231F9D420FD0042E7B
:1058F80007D054F8043C46F8043C21463046FFF7EC
:1059080075FC2046FFF75FFC08340836ECE770BDED
:10591800F0B50F6889B00D4639460446FFF70BFB12
:1059280000285ED1237BBBB103AE3B4607F1100CC8
:10593800B64618685968324603C2083363451646A6
:10594800F7D118681060002307F11402714601208E
:10595800FEF7F6FD002845D1294602A851F8043B78
:105968000193FFF743FC019B039302A904A867680E
:10597800FFF73CFC6568A3689D4214DB0135002DE8
:105988000BDDE800FFF71CF8064610B394E80600A4
:1059980001EBC202FFF786FF00E000262068FFF750
:1059A80017F82660A5602668626806EBC70506EB4F
:1059B800C202294605F10800FFF774FF35B1039BC1
:1059C80046F8373004A9281DFFF710FC6368013337
:1059D800636004A8FFF7F7FB02A8FFF7F4FB0020B9
:1059E80000E0014809B0F0BDF2FEFFFF73B50025E5
:1059F8000560456006462020FEF749FB0446B0B125
:105A0800034601A903F8015BC0F801505D604FF639
:105A1800FF73C3827F23C0F80A50C0F80E50C0F845
:105A2800125003761C308DF80450FFF70CFC00234D
:105A380014200193FEF72BFB28B1012343608360F8
:105A4800064B0360046173683460706001A80193B9
:105A5800FFF7B9FB304602B070BD00BFC0850D002E
:105A680013B54FF0000101AA0446FFF7BFFF204617
:105A780002B010BD2DE9F0438DB09046054602A84E
:105A88000F46CE69FFF7ECFF00214046FEF744FDC4
:105A980008B102A919E050CE04EBC606A642A146F9
:105AA800F7D054F8080B41460130FEF7E0FF002814
:105AB800F4D020230F4A0493009200230E49059343
:105AC80004AA0120FEF7E0FE49462846FFF79FFB9F
:105AD80003A8FFF778FB2B68DA8A4FF6FF739A4220
:105AE80003D029467869FFF73BFA28460DB0BDE890
:105AF800F08300BF65860D00E4850D00F0B504460F
:105B08008BB00D46002900F0A58003A8FEF7C6FF5C
:105B18006368033B072B00F29A80DFE803F0044434
:105B280098989898808B06A8FFF79AFF069BA289F9
:105B38009A8262895A8222891A822289DA81228B80
:105B4800DA822246A17D52F8100F04909288ADF8AF
:105B580014200498BDF81420D971C3F80100A3F8E3
:105B680005202B6813B1A96806A89847A37B012BC9
:105B7800069B0BBF022201221A701A700CBFAC6977
:105B8800EC696368002B0ADC06A908A8FFF73FFB4D
:105B980008A92046FFF712FC09A8FFF714FB07A87D
:105BA800FFF711FB53E0A1892846FFF7EAFA0446FC
:105BB80000284CD06B680BB1E968984723681A78BD
:105BC800012A04D12146E869FFF7B2FB3FE0DA6910
:105BD800A86913685168002603EBC10199420DD0EA
:105BE8001D68AA69ED6902EBC505954204D052F813
:105BF800087B87F85C60F8E70833EFE723684FF61F
:105C0800FF710022D9827F211A701976C3F80A2001
:105C1800C3F80E20C3F81220FFF73CFB17E0A18A57
:105C28002846FFF7AEFA90B1E18A0090E36822694E
:105C380028690AE0A18A2846FFF7A3FA38B105685F
:105C4800E18A0090E3682269E869FFF733F903A85D
:105C5800FEF732FF0BB0F0BD10B50446406808B13E
:105C6800FEF717FA204610BD07B503690C308DE81A
:105C7800090003F12C0001F056FE6846FFF7ECFF1F
:105C880003B05DF804FB000038B500230446036048
:105C980014200D46FEF7FBF928B101234360836009
:105CA800024B036005612060204638BD88850D00E1
:105CB80070B5002586B00560456004466020FEF793
:105CC800E6F9CDF810D00646059008B1FFF7D2F8EE
:105CD800314601AB02AA03A80595FFF7D5FF039B40
:105CE80062682660636003A80392FFF76CFA04A851
:105CF800FFF7B2FF204606B070BD2DE9F0434FF024
:105D0800000989B005460E464F464FF02A082B6811
:105D1800994580F0948001A8FFF7CAFF019B83F89A
:105D28003C702A89A3F85420346803F1160204F160
:105D3800100CA646BEE80300E645106051607446A4
:105D480002F10802F5D1DEF8000010606A6808FB6D
:105D580009F42244527E920742BF1A7842F00202A6
:105D68001A706B6823445B7E580741BF019A137809
:105D780043F0040313706B68234403A85B7E190780
:105D880041BF019A137843F0080313706B682344EA
:105D98005B7EDA0641BF019A137843F01003137053
:105DA8006B6823445B7E9B0641BF019A137843F0DE
:105DB80020031370FEF769FE6A682244131D0DF173
:105DC8000C0E143218685968F446ACE8030008331E
:105DD8009342E646F6D11868CCF80000019A03AB66
:105DE80002320DF11C0C9E46BEE80300E645106029
:105DF8005160734602F10802F5D1DEF80000106028
:105E08006A68019B144401A9E28BA3F84020228C04
:105E1800A3F84220628CA3F84420A28CA3F8462061
:105E2800E28CA3F84820228DA3F84A203068FFF7B7
:105E3800A7FC02A8FFF7C7F909F1010967E709B04C
:105E4800BDE8F08310B50446406808B1FEF721F9B3
:105E5800204610BD73B505690C30AC69EB698DE857
:105E6800210004EBC306A64204D0201DFFF7ABF9BE
:105E78000834F8E7A869FEF7ABFD6846FFF7E2FFCC
:105E880002B070BD38B500230446036014200D46E7
:105E9800FEF7FDF828B1012343608360024B0360DD
:105EA80005612060204638BDA4850D00F0B50026A8
:105EB80087B006604660074624200D46FEF7E7F8DF
:105EC800CDF810D004460590A0B1FEF7DEFDA682FD
:105ED800E682A661E66126622B46224605F1100697
:105EE80018685968154603C50833B3422A46F7D1DE
:105EF8001868286000232146059302AA01AB03A86D
:105F0800FFF7C0FF039B7A683C607B6003A803929D
:105F1800FFF759F904A8FFF795FF384607B0F0BD19
:105F28002DE9F041804688B00D4600271C26D8F898
:105F380000309F4230D203A8FEF7A7FDD8F804200E
:105F480006FB07F42244131D0DF10C0E14321868D9
:105F58005968F446ACE8030008339342E646F6D1A4
:105F68001868CCF8000003A901A8FFF79FFFD8F82C
:105F78000430019A234401A91B8B9382D8F804307A
:105F88001C440137638BD3822B68D869FFF7C0FCA8
:105F980002A8FFF718F9CAE708B0BDE8F0810000C9
:105FA800024800230360FEF727BB00BF94E30320E9
:105FB80010B58368044613B103220146984720466A
:105FC80010BD002211464068FEF7E2BC00221146CF
:105FD8004068FEF7EDBC00224068FEF7E1BC0022F5
:105FE80081F001014068FEF7CBBC00231A46194630
:105FF8004068FEF7BDBC00231A4619464068FEF704
:10600800AFBC002211464068FEF7A2BC0022114630
:106018004068FEF78DBC002202214068FEF790BC64
:1060280000231A464068FEF77BBC0000024B03229F
:106038005A60024A1A60704798E3032088860D0068
:106048007047F8B5064615460C468F18BC4206D070
:10605800336814F8011B9B6830469847F6E72846D2
:10606800F8BD0022007CFEF717BB0021007CFEF77C
:106078001BBB0021007CFEF71FBB0021007CFEF744
:1060880023BB0021007CFEF727BB10B51421044672
:1060980001F039FF204610BD10B504464FF47A735D
:1060A8000846A3600021044B207461602360FEF75A
:1060B80023FB204610BD00BFBC860D000021007CDC
:1060C800FEF712BB704710B51821044601F01BFFFC
:1060D800204610BDF0B5037D062B8DB00E4600F1AD
:1060E80004074FF0000402D000F1080518E00CADD9
:1060F800394605F8304D2F232A460A20FEF704FBBF
:10610800284602F0F9F833680246DB68294630462B
:1061180098470FE024B12E21304601F049FB044492
:1061280015F8011D0A22304601F07EFBBD420444E9
:10613800F0D120460DB0F0BD10B5054B0446112234
:1061480040F8043B002102F084F8204610BD00BF4F
:10615800E4860D000346074A10B543F8042B01F105
:10616800100251F8044B43F8044B9142F9D10A78D4
:106178001A7010BDE4860D0010B59DF8084044EA79
:10618800032343EA024242EA0161042341600375A2
:1061980010BD37B50D788B784A78C97800912946B3
:1061A800FFF7EAFF03B030BD00F11002012312F837
:1061B800101C0129104604D152F8041C03EB4103BA
:1061C80004E0022904BF52F8041C5B18013B02F1E9
:1061D8001002ECD170470EB42DE9F04187B000AF42
:1061E80007F13404054654F8046B7C6023463246B4
:1061F800102107F10800FEF7FBFB0F2816D900F164
:10620800080323F00703E846ADEB030D3246411CB3
:10621800234668467C60FEF7EBFB021E04DD2B6814
:1062280069469B6828469847C54607E030B12B6801
:1062380002469B6807F10801284698471C37BD4667
:10624800BDE8F04103B0704710B5036804469B6889
:106258009847A368013BA3602BB923682046DB68F5
:10626800BDE81040184710BD13B502AB026803F82B
:10627800011D946819460122A04702B010BD836829
:10628800FBB11A78032A1AD8DFE802F00417021DB6
:106298000520704702685B685268D05C2D2814D0CE
:1062A800A0F13003092B10D9742810D066280ED01D
:1062B800A0F16E03584258417047062070470020ED
:1062C8007047184670470420704703207047022023
:1062D800704710B50446FFF7D2FF02280DD016D339
:1062E800042814D82268A36850685B680A22002131
:1062F8001844BDE8104002F0B5B82268A368526897
:106308005B68D05CA0F174035842584110BD00206E
:1063180010BD10B5436904465BB18068E060013B7D
:106328001030A060206163612BB1FFF73DFFA060D2
:1063380001E0184610BD012010BD10B57D210446AE
:10634800FFF792FF01232371204610BD08B503799A
:10635800012B02D0022B02D008BD2C2100E03A21EB
:10636800FFF782FF08BD10B50446FFF7EFFF204690
:106378007B21FFF779FF00232371204610BD000021
:1063880038B504460D46FFF7E1FF23680449DB688A
:1063980020462A46984701232371204638BD00BF6E
:1063A80062860D0038B504460D46FFF7CFFF236817
:1063B8000449DB6820462A46984701232371204672
:1063C80038BD00BFFF860D00F8B50D4617462221DF
:1063D80004462F44FFF748FF2A462946BA4238D0D8
:1063E800164616F8015B222D03D05C2D01D01F2D17
:1063F8002DD82368521A9B68204698475C2120466E
:10640800FFF732FF0C2D19D007D8092D0FD00A2D10
:1064180012D0082D14D162210AE0222D05D05C2D5E
:1064280003D00D2D0CD1722102E0294600E0742121
:106438002046FFF719FF09E06E21F9E76621F7E723
:1064480023680A49DB682A4620469847314632467F
:10645800C4E7914204D02368521A9D682046A84791
:1064680022212046FFF700FFF8BD00BF0A870D0074
:1064780070B504460D461646FFF768FF20463246BB
:106488002946FFF7A1FF02232371204670BD70B58E
:1064980004460D461646FFF759FF20463246294660
:1064A800FFF792FF01232371204670BD38B50C68B1
:1064B80003689C4205460CD014B1636801336360DD
:1064C800286828B14368013B43600BB9FFF7BCFE5D
:1064D8002C60284638BD000010B500230446036030
:1064E80043601048A060E360D1B10B78032B06D05D
:1064F800B3B9136858684B68C35C6E2B08D013682F
:1065080058684B680344A3608B6849685B1AE3606A
:106518001146204651F8043B40F8043BFFF7C6FFFC
:10652800204610BD6E870D00002310B50446036099
:1065380043608360C3600361436171B10B78012BD1
:106548000BD101F110038360CB684361114651F808
:10655800043B40F8043BFFF7A9FF204610BD002389
:1065680010B5044603604360816031B1114651F8AB
:10657800043B40F8043BFFF799FF204610BD8068B4
:106588000368DB681847704719B10B6808465B68F1
:106598001847704719B10B6808465B681847704779
:1065A80070477047704738B504460D4600682E217D
:1065B80001F08EFE2368C31A2B6023B1037803B160
:1065C800013023682060184638BD10B50C210446F8
:1065D80001F099FC204610BD10B50421044601F0D5
:1065E80092FC204610BD10B50421044601F08BFC36
:1065F800204610BD38B50C46054601F021FB844203
:1066080005D101F01DFBBDE8384001F00DBB01F0DC
:106618008BFA844205D101F087FABDE8384001F0D1
:106628007CBA21462846FFF7B5FF38BD08B501F00A
:1066380059FEB0FA80F0400908BD38B5054608464D
:106648000C4601F059FE214602462846BDE838406E
:10665800FFF71DBF2DE9F04385B04FF000089146C4
:106668000746484A01921D46036A039301A80E464D
:106678008DF808800C9CFFF776FE41464846FEF7E9
:1066880013F941498046012201A8FFF7F1FE41466E
:10669800FFF7D3FF3EB13D49012201A8FFF7E8FE0D
:1066A8003146FFF7CAFF3DB13949012201A8FFF77A
:1066B800DFFE2946FFF7C1FF2379DE070ED5A5685F
:1066C8002F21284601F035FE00B1451C3149012231
:1066D80001A8FFF7CDFE2946FFF7AFFF23799D07F5
:1066E80007D52D49022201A8FFF7C2FEE168FFF78E
:1066F80047FE2379580716D525692E46334613F8E1
:10670800012B3AB1202A01D11D4601E0282A01D0E7
:106718001E46F3E70222214901A8FFF7A9FE721BD2
:106728002946FFF7B4FE2379190707D51C4901222A
:1067380001A8FFF79DFE6169FFF734FE2379DA06A9
:1067480008D5042217490DEB0200FFF791FEA16955
:10675800FFF716FE23799B0607D51349062201A8E1
:10676800FFF786FEE169FFF768FF01A8FFF7E5FD7F
:10677800386A0E4903680222DB68984705B0BDE80D
:10678800F08300BF18870D00A1870D00B4870D00A6
:106798002D880D0058870D005A870D005D870D0064
:1067A800C9870D0060870D0065870D006C870D0097
:1067B8000068FDF729BF70B5044608460D4601F08C
:1067C8009BFD2368024629462046DB68BDE87040E9
:1067D800184713B502AB026803F8011DD4681946BF
:1067E8000122A04702B010BD2DE9F041069D984650
:1067F8002B790E4619070446174605D56B69544A86
:10680800006A002101F012F8B8F1000F0DD05B21E9
:106818002046FFF7DEFF41462046FFF7CCFF2368FE
:106828004C49DB680222204698472B79DA0725D5A0
:10683800D5F808802F21404601F07BFD08B100F112
:10684800010841462046FFF7B6FF2B799B0709D57B
:106858003A212046FFF7BDFFEB683F4A206A002136
:1068680000F0E4FF2B7913F0040F236818BF3B49AD
:10687800DB6808BF3A490222204698472B79580717
:1068880018D529690A46134613F8010B38B1202890
:1068980001D1194601E0282801D01A46F3E72368F8
:1068A800521ADB682046984723682E49DB68042281
:1068B8002046984700213846FDF7F6FF0146204656
:1068C800FFF779FF23682649DB68022220469847AC
:1068D8001EB131462046FFF76EFF2B7913F0300FBB
:1068E8002DD023682049DB680222204698472B795F
:1068F800D9060BD523681D49DB680722204698472F
:10690800AB691B4A206A002100F090FF2B799A0698
:1069180011D5DB0605D523681049DB68022220461D
:10692800984723681349DB6820460A229847E96993
:106938002046FFF740FF5D212046FFF74AFF236806
:106948000D49DB6820460222BDE8F041184700BF28
:106958006F870D0076870D0062860D0079870D0020
:106968007E870D007C870D0081870D0084870D00D0
:10697800E3840D008C870D006C870D002DE9F04F26
:106988004568076885B09146142255430193AB10BA
:10699800194D02925D438B463C460123002D03931B
:1069A80023DD029B6E1003FB06F004EB00084A4649
:1069B800B8F804A02058D14528BF5246594601F0DE
:1069C800A3FC039B48B9D14503D1019A13703546FE
:1069D800E4E78CBF0120002000E0C00F0028F6D0BB
:1069E800AE1B08F11404013EF1E7E41B0248A410B1
:1069F800604305B0BDE8F08FCDCCCCCCF0B585B008
:106A080003690191067E13B309B304AF002347F865
:106A1800043D00F10C041D46394601A8FFF7C3FDEB
:106A28000146A0B104AB039A03F8055D2046FFF7C1
:106A3800A5FF9DF80B3053B12368142404FB0034E0
:106A4800083434F9023C002BA8BFDEB2E4E7304634
:106A580005B0F0BD10B5094C2368DB070BD4204600
:106A6800FDF726FB38B12046FDF727FB044A054908
:106A7800054801F043FA044810BD00BFA0E3032015
:106A880048D90320AB650D00D4D8032010B5094CB4
:106A98002368DB070BD42046FDF70AFB38B12046F4
:106AA800FDF70BFB044A0549054801F027FA04489D
:106AB80010BD00BFD0E3032048D90320A9650D000D
:106AC800D8D8032038B500250446056045608560A0
:106AD80005614561856140F8245FFDF78DFDFFF78D
:106AE800B9FFE061FFF7D2FF25732062204638BD69
:106AF80010B50A4C2368DB070ED42046FDF7D8FAF8
:106B080050B10748FFF7DEFF2046FDF7D6FA054AE1
:106B18000549034801F0F2F9014810BDA4E3032038
:106B2800A8E3032048D90320636F0D000023024A1D
:106B380002490348FDF7C0BE456E0D00D56D0D0036
:106B48005D6D0D0000231A4619461846FDF7B4BEC0
:106B580073B502ACCE6851F8043B44F8083D0546CD
:106B680001A8FEF743FB224631462846FFF7B4FC4E
:106B780001A8FEF728FB284602B070BD73B502AC29
:106B88000E6951F8043B44F8083D054601A8FEF794
:106B98002DFB224631462846FFF7E1FC01A8FEF707
:106BA80012FB284602B070BD73B502AC8E6851F86E
:106BB800043B44F8083D054601A8FEF717FB2246AA
:106BC80031462846FFF7B0FC01A8FEF7FCFA284634
:106BD80002B070BD30B58BB00D46014604A8FFF772
:106BE800E3FF04A8FFF795FBE8B104A96846FFF79F
:106BF800AFFF0F490298FFF719FD044610B12C1C8E
:106C080018BF012401A8FEF7DEFA002CE9D004A978
:106C18006846FFF7B3FF6846FFF75BFB286001A8EB
:106C2800FEF7D1FADDE705A8FEF7CDFA0BB030BDC7
:106C380097870D0037B50C4620461349154601F0D5
:106C480051FB40B900F0FCFF4FF4165100F0E8FF8B
:106C580000F0F6FF15E00D49204601F043FB78B936
:106C680002A94FF4165341F8043D2846FFF7B2FF36
:106C780000F05AFF019900F04DFF00F055FF00E0C9
:106C8800002003B030BD00BF9C870D00A3870D0016
:106C980070B5046843681426054606FB0346A642F9
:106CA80005D004F10800FFF7F3FF1434F7E728686C
:106CB800FDF78EFE284670BD70B50468436805462A
:106CC80004EB0316A64204D0204600F02CFE103434
:106CD800F8E72868FDF77CFE284670BD10B5044625
:106CE8000C30FFF7D5FF2046FFF7E6FF204610BD22
:106CF80010B5044B044640F8043BFFF7EFFF20466D
:106D080010BD00BF9C840D0010B50446FFF7F0FFCE
:106D18002046242101F0F7F8204610BD10B5034B9A
:106D280003600446FFF7E4FF204610BD30870D00DE
:106D380010B50446FFF7F2FF2046242101F0E3F8DE
:106D4800204610BD10B5036804461868FDF764FCBA
:106D5800204610BD2DE9F04F9B461B4B5B68C3F3E3
:106D6800080385B082460E46904653BBFFF7C0FE27
:106D7800044624300390FFF71BFD237BF3B901235E
:106D8800237325686368F6B205EB83094D4513D074
:106D980055F8047B4146381DFFF730FE8642F5D38F
:106DA8003B68CDF800B09B689E463846434632465D
:106DB80051467746B847E9E70023237303A8FFF74E
:106DC800C1FF05B0BDE8F08F00ED00E02DE9F74FF9
:106DD8009946194B5B68C3F308030746884616466D
:106DE80033BBFFF785FE044624300190FFF7E0FC33
:106DF800237BD3B901232373256863685FFA86FB75
:106E080005EB830A55450ED055F8046B4946301DED
:106E1800FFF7F4FD8345F5D333684246DB6839460E
:106E280030469847EEE70023237301A8FFF78AFF4F
:106E380003B0BDE8F08F00BF00ED00E02DE9F3419D
:106E4800154B5B68C3F3080304468846FBB9FFF794
:106E58004FFE064624300190FFF7AAFC96E8A000F2
:106E6800462605EB8707AF4207D101A8FFF76AFF5F
:106E7800B442B4BF002001200AE055F8040B414693
:106E88000430FFF7BBFD8642A8BF0646EBE70020AB
:106E980002B0BDE8F08100BF00ED00E070B5036806
:106EA8004268044603EB82029A4218460ED00668EE
:106EB8000D68AE4203F10403F6D1011D521A01F028
:106EC800ADF96368013B6360012070BD002070BDAF
:106ED8001FB50446243001910390FFF769FC01A90E
:106EE8002046FFF7DBFF20B903A8FFF72BFF04B00C
:106EF80010BD6368002BF7D1FFF724FEF4E770B5E7
:106F0800056943691826044606FB0356AE4215D0A8
:106F180005F110012046FFF7C1FF63680BB9FFF7C1
:106F280011FEE06929690368DB689847696919B146
:106F3800206A0368DB6898471835E7E725696369BD
:106F4800182606FB0356B54204D0284600F0EBFC91
:106F58001835F8E70023636170BD73B5044602ADC8
:106F6800FFF7F0FD04F1240045F8040DFFF720FCBD
:106F78002046FFF7C4FF2846FFF7E4FE256963694A
:106F8800182606FB0356B54204D0284600F0CBFC71
:106F98001835F8E72069FDF71BFD2068FDF718FD97
:106FA800204602B070BD03680A6802600B6043683F
:106FB8004A6842604B6083688A6882608B60704769
:106FC80010B500230446036043608360FFF7EBFFBE
:106FD800204610BD8842F8B50446164625D9904289
:106FE80024D2551A143D2C44A1F11407A2F10C0522
:106FF8000026A5F108039F4237D084B155F8083C14
:10700800236035F8043CA38035F9023CE380A66090
:10701800E6602661294604F10800FFF7C4FF284608
:10702800FFF736FE143C143DE3E71ED001F10805D6
:107038000027A5F108039E4217D084B155F8083CF3
:10704800236035F8043CA38035F9023CE380A7604F
:10705800E7602761294604F10800FFF7A4FF2846E6
:10706800FFF716FE14341435E3E7F8BDF8B54568A4
:1070780083689D4204460E4617460EDB0135002DF7
:1070880005DDA9000068FDF7ABFC20B9F8BD006874
:10709800FDF79EFC00202060A5602568626805EB6E
:1070A800860105EB8202521A081D01F0B7F845F86F
:1070B80026706368013363600120F8BD37B5044664
:1070C80024300D460190FFF773FB2368616803EBDA
:1070D800810083421A4609D01268AA4203F10403C8
:1070E800F7D101A8FFF72EFE00250EE02A4620461C
:1070F800FFF7BCFF05460028F3D06368012B01D1D8
:10710800FFF714FD01A8FFF71DFE284603B030BDA8
:107118008842F8B506460C46154614D9904213D253
:10712800A2F110056C1AA1F110070444AF4218D05F
:107138001CB12946204600F0E6FB284600F0F3FB88
:10714800103D103CF2E70CD0AC420AD01EB12146EB
:10715800304600F0D8FB204600F0E5FB103410362E
:10716800F2E7F8BD70B50E1E05460BDD3001FDF7E0
:1071780027FC044670B195E8060001EB0212FFF700
:10718800C7FF00E000242868FDF722FC2C60AE60F1
:10719800012070BD70BD2DE9F04F002395B09246D7
:1071A8004622036043608360C360036143610276E3
:1071B8000291DAF8041008939942054609930A9354
:1071C80040F39D8008A8FFF7CDFF002840F0978086
:1071D8008EE021460BA800F096FB0BA90FA8099E8C
:1071E80000F091FB09990A9B9942C0F2CE800131C7
:1071F80008A8FFF7B7FF002840F0C7800FA800F0E5
:1072080092FB0BA800F08FFB1434A742E1D10026B3
:107218000B960C960D96B146099B9E4280F2A8806B
:107228003301089AD3580693002B00F09F8014234B
:107238007343CDF81C9001930BAC07A906A8FFF780
:10724800B2F90746002800F0918014AB014603F814
:10725800399D079A2046FFF791FB9DF8178000900B
:10726800B8F1000F53D1BDF81C30ADF840304FF6DF
:10727800FF730F97ADF84230CDF84480CDF84880C1
:10728800CDF84C806768A3689F424FDA009BD4F81A
:1072980000B06168142253430BEB030702FB01B2F1
:1072A80007F1140039460393FFF794FEA7B1039B37
:1072B8000F9A4BF80320BDF84030BB80BDF942302F
:1072C800FB80C7F80890C7F80C90C7F8109011A970
:1072D80007F10800FFF767FE63680133636011A8D0
:1072E800FFF7D6FCB8F1000F11D00BA8FFF7D0FCC0
:1072F80008A8FFF7E1FC284615B0BDE8F08FDAF8DA
:107308000040DAF80430142707FB03477DE72368B9
:10731800009A142404FB0234069B1B7823BBDAF87A
:107328000030019A13441B7CE3801DE00137002FD5
:107338000FDD142303FB07F00393FDF741FB83469E
:1073480078B194E80600039B03FB0212FFF742FEA4
:1073580000E0C3462068FDF73BFBC4F800B0A76017
:1073680094E74FF00108BAE7083466E7013653E7B7
:1073780008A92846FFF717FE0BA905F10C00FFF72F
:1073880012FE9DF808302B76AFE7089B099A03EBAD
:10739800061603EB0212314606F11000FFF7B8FE9D
:1073A8001EB10FA9304600F0AEFA099B01330993CC
:1073B80024E700007FB50446094B44F8043B054622
:1073C8000E4601A81146FCF7DEFF01AA3146204609
:1073D800FFF7E1FE01A8FCF795FF284604B070BD51
:1073E8009C840D00F0B50F468BB02B49109C384695
:1073F80016461D4600F076FF28BB002C49D02946CA
:1074080001A8FFF7DDFD2549242000F087FD05468A
:10741800B8B101A904A8FFF7D3FD04A907A8FCF790
:10742800B2FF07AA31462846FFF7C4FF07A8FCF7B2
:1074380069FF1B4B2B602C6204A8FCF763FF194BF8
:107448002B6001A81FE01849384600F04BFFF0B93F
:10745800FCB1294604A8FFF7B3FD1049242000F029
:107468005DFD054670B104A907A8FCF78CFF07AAC3
:1074780031462846FFF79EFF07A8FCF743FF084B55
:107488002B602C6204A8FCF73DFF284602E0002090
:1074980000E020460BB0F0BDF5870D009C890D007B
:1074A8003C880D0030870D00F9870D00014B024A1A
:1074B8001A607047D4E303200A880D0000221146A1
:1074C8004068FDF765BA002211464068FDF770BABA
:1074D80000224068FDF764BA002281F0010140688B
:1074E800FDF74EBA00231A4619464068FDF740BA20
:1074F80000231A4619464068FDF732BA00221146A1
:107508004068FDF725BA002211464068FDF710BA19
:10751800002202214068FDF713BA00231A4640688A
:10752800FDF7FEB938B5054688B104684CB1A368C3
:107538001BB103222146204698471021204600F01F
:10754800E2FC28461421BDE8384000F0DCBC38BD18
:1075580010B103685B681847704710B503680446A4
:10756800BBB15868FDF728F878B923685A7C12B976
:107578005868FDF729F823685868FDF72DF8206842
:107588000023236028B1FFF7CDFF206808B1FFF77B
:10759800C9FF204610BD000038B50C4B03600446F7
:1075A800D0F8CC0108B1FCF776FDD4F8C45135B158
:1075B8002846FFF7D2FF0421284600F0A4FCA06863
:1075C80008B1FFF7C5FF204638BD00BF6C880D0025
:1075D80038B50D4C0D4B23600025022304F5E470EB
:1075E8006360A560C4F8C451C4F8C851FDF704F835
:1075F800074BC4F8CC5123602046064A0649BDE82B
:10760800384000F07BBC00BFD8E30320A0880D0001
:107618006C880D0048D90320A1750D0000231A4677
:107628004068FDF77DB9002202214068FDF788B95E
:10763800002211464068FDF77BB9002211464068D8
:10764800FDF786B900231A4619464068FDF788B940
:1076580000231A4619464068FDF78AB9002281F0CE
:1076680001014068FDF78CB900224068FDF798B920
:10767800002211464068FDF79BB900221146406878
:10768800FDF786B92DE9F043002495B016460D465E
:107698000746FEF751FD214620220CA8009400F071
:1076A800D8FD40230C9321466B460CAA3046FDF7C3
:1076B8003BF80446002844D1024601216868FDF7DA
:1076C80047F90221804622466868FDF741F9009E85
:1076D80081462146002E34D0002932D17368022B0E
:1076E80002D00A2B09D02AE0B8F1000F27D071691F
:1076F80038460431FEF74DFD20E0B9F1000F1ED0E9
:107708007469112201A800F0A4FD06238DF8143035
:1077180001AD04F108031834186859682A4603C2F1
:107728000833A3421546F7D101A906A807ADFEF70D
:1077380011FD0FCD3C1D0FC42B6823700121F66984
:10774800C8E70098FCF7E8FF384615B0BDE8F083B5
:10775800024B034A1A6000225A607047A8E50320CA
:10776800A0880D00F8B506460D468F180024BD42C6
:107778000CD0336815F8011B9B68304698470028E1
:1077880001DB0444F3E7002C08BF04462046F8BD9B
:1077980070B505460C46084649B100F0ADFD2B68AA
:1077A800024621462846DB68BDE87040184770BD90
:1077B80003689B68184738B50D210546FFF7F8FFA1
:1077C8000A2104462846FFF7F3FF204438BD30B5A8
:1077D8008BB00B4600218DF82410012A98BF0A228D
:1077E8000DF12304B3FBF2F505FB123303F0FF039D
:1077F800092B94BF30333733DBB2214604F8013903
:107808002B46002DEED1FFF7C3FF0BB030BD10B4EF
:107818002AB903685DF8044B9B68C9B21847D2B20D
:107828005DF8044BFFF7D3BFFFF7F1BF0CB42DE9A8
:10783800F04387B000AF07F13804054654F8049BBD
:107848003C600E4623464A461421381DFDF7D0F801
:10785800132805D8391D2846FFF79AFF044613E078
:1078680000F1080323F00703E846ADEB030D411CC4
:1078780023464A4668463C60FDF7BAF869462846FA
:10788800FFF786FF0446C5461EB12846FFF793FF5B
:10789800044420461C37BD46BDE8F04302B070479B
:1078A80010B50446FEF784FB204610BD0348044A81
:1078B80004490023836000F021BB00BFB0E503202A
:1078C80048D90320A9780D00704710B51021044647
:1078D80000F019FB204610BD70B5084B0360044644
:1078E80000250E4640F80C5FFCF77EFE30462671F8
:1078F800FCF722FFA560204670BD00BFD4880D00AC
:107908000079FCF721BF00230360436083600373A1
:1079180010B50C6804604C6844608C6884600B6027
:107928004B608B6010BD10B504460068FDF750F839
:10793800204610BD10B50446006808B1FDF748F8A8
:1079480000232360A360636010BD38B504460D466C
:1079580000680131FDF744F810B184E821000120E6
:1079680038BD10B50368044613B143688B4207D28B
:107978002046FFF7EAFF20B1A3680BB9226813700D
:10798800012010BD70B50E46114604461546FFF796
:10799800E8FF18B92046FFF7CDFF09E02A4631462F
:1079A800A560206800F02FFC2268A3680021D1544C
:1079B800204670BD38B500230446036043608360E9
:1079C80003730D4639B1084600F096FC2946024675
:1079D8002046FFF7D7FF204638BD884210B50B4632
:1079E800044607D0096819B19A68FFF7CBFF01E090
:1079F800FFF7A0FF204610BD10B500230446036022
:107A0800436083600373FFF7E8FF204610BD38B575
:107A180005460C4641B1084600F06EFC2146024678
:107A28002846FFF7AFFF01E0FFF784FF284638BD7F
:107A3800044B00204FF6FF72187058809A80FCF7AC
:107A480043BF00BFC0E50320024B1A68024B1A600F
:107A5800704700BFDCD80320C8E503207047417495
:107A6800704708B5007CFCF7B7FE20EAE07008BD57
:107A780008B5007CFCF788FE20EAE07008BD08B570
:107A8800007CFCF791FE30EA200028BF4FF0FF3061
:107A980008BD08B5007CFCF77FFE30EA200028BF4F
:107AA8004FF0FF3008BD007CFCF786BE10B51421EE
:107AB800044600F028FA204610BD70B5457C0446FF
:107AC8000E4625B9007CFCF787FE002805DD314607
:107AD800207CBDE87040FCF74FBE284670BD000012
:107AE80010B5044608461146002262604FF47A72C7
:107AF800A260054A22600122207462741A46FCF7CB
:107B08002BFE204610BD00BF10890D000023007C0D
:107B1800FCF76ABE0022FFF7F9BF007CFCF724BE21
:107B2800007CFCF751BE000038B50C4D296811F0F7
:107B3800010411D12846FCF7BBFA68B1084A094B81
:107B480009482146FFF7CCFF2846FCF7B6FA074A52
:107B58000749054800F0D2F9034838BD64E6032018
:107B680068E60320E0E50320CCE5032048D903209C
:107B7800657A0D0041747047704708B50021007C94
:107B8800FCF762FE30EA200028BF4FF0FF3008BD46
:107B980008B50121007CFCF757FE30EA200028BF19
:107BA8004FF0FF3008BD08B5007CFCF745FE20EA21
:107BB800E07008BD08B5007CFCF736FE20EAE070EE
:107BC80008BD007CFCF750BE10B51421044600F037
:107BD8009AF9204610BD38B50446007C0D46FCF7DE
:107BE8002BFE002801DC607C28B12946207CFCF7AC
:107BF80033FE20EAE07038BD10B504460023636008
:107C08004FF47A73A360054B23600123084621745F
:107C180063741146FCF7F0FD204610BD40890D0045
:107C28000022007CFCF7F0BD007CFCF7F5BD10B528
:107C380014220446002100F00CFB204610BD000071
:107C480030B50E4D87B001A8FFF7F1FF296811F094
:107C5800010410D12846FCF72BFA60B101AA21468D
:107C68000748FFF7C9FF2846FCF727FA054A0649DF
:107C7800034800F043F9024807B030BDECE60320A2
:107C8800F0E6032048D90320817B0D00002211462D
:107C98004068FCF75DBE002211464068FCF778BEDC
:107CA800002211464068FCF783BE00224068FCF7BA
:107CB80077BE002281F001014068FCF761BE002315
:107CC8001A4619464068FCF753BE00231A4619465F
:107CD8004068FCF745BE002211464068FCF728BE04
:107CE800002202214068FCF72BBE00231A46406898
:107CF800FCF716BE024B04225A60024A1A6070470B
:107D080004E7032070890D0008B50C4B33B1FFF769
:107D180097FF03681B699847002809DC084B63B183
:107D2800FFF702FF03681B699847002803DC08BDBA
:107D3800AFF30080F2E7AFF3008008BD0000000059
:107D48000000000008B5FFF7DFFFFCF77DFC014BE2
:107D5800186008BD10E7032007B5002300931A46F2
:107D68006FF07701FCF7CAFD03B05DF804FB000073
:107D780007B543880A2B08D0502B09D1094B1B683B
:107D88003BB103B05DF804EB1847FFF7E5FF06E0E9
:107D9800002300931A466FF07701FCF7AFFD03B09C
:107DA8005DF804FB0CE7032010B5FCF73DFC044626
:107DB80000F058FA074B13B12046AFF300800021BA
:107DC8000448FCF7A5FD00210348BDE81040FCF776
:107DD8008BBD00BF00000000797D0D0010B5044682
:107DE8000F48FFF78DFD28B1A4F10B03022B01D832
:107DF800002010BD00F040F8FEF760F908B1012C32
:107E0800F6D9FFF791FEFFF78BFE18B1A4F109032D
:107E1800012BEDD9232C8CBF0020012010BD00BF01
:107E28002CE70320232838B504460D460AD8FF2935
:107E380008D0FFF7D3FF28B129462046BDE83840CF
:107E4800FCF712BC38BD38B504460D46FCF714FCE7
:107E5800FF2810D0062804D84D2323FA00F0C307C2
:107E680009D42046FFF7BAFF28B129462046BDE8C5
:107E78003840FCF709BC38BD38B50B4D296811F0FE
:107E880001040FD12846FCF713F958B121460748D9
:107E9800FEF702F92846FCF710F9054A0549034898
:107EA80000F02CF8014838BD14E7032018E7032038
:107EB80048D9032049600D0070B50C4C0C4E0D4D8F
:107EC80000212046FFF708FD20460B4C3246294684
:107ED80000F014F801212046FFF7FEFC324629463F
:107EE8002046BDE8704000F009B800BF2CE7032029
:107EF80048D90320D1780D003CE703200B46014602
:107F0800184600F063B9FCF7C4B80000024B1868C3
:107F1800BFF35F8F704700BF4CE7032010B5002800
:107F280014BF044601242046FCF74AFD20B9FFF798
:107F3800EDFF08B18047F6E710BD0000244B1A6832
:107F4800D0075CBF01221A60224B1A68D1075CBFB8
:107F580001221A60204B1A68D2075CBF01221A60FE
:107F68001E4B1A68D0075CBF01221A601C4B1A68A6
:107F7800D1075CBF01221A601A4B1A68D2075CBF8E
:107F880001221A60184B1A68D0075CBF01221A60D8
:107F9800164B1A68D1075CBF01221A60144B1A6885
:107FA800D2075CBF01221A60124B1A68D0075CBF67
:107FB80001221A60104B1A68D1075CBF01221A60AF
:107FC8000E4B1A68D2075CBF01221A60704700BFC7
:107FD8007CE7032078E7032074E7032070E7032099
:107FE8006CE7032068E7032064E7032060E70320C9
:107FF8005CE7032058E7032054E7032050E70320F9
:10800800184B1A68D1075CBF01221A60164B1A6810
:10801800D2075CBF01221A60144B1A68D0075CBFF4
:1080280001221A60124B1A68D1075CBF01221A603C
:10803800104B1A68D2075CBF01221A600E4B1A68EF
:10804800D0075CBF01221A600C4B1A68D1075CBFCD
:1080580001221A600A4B1A68D2075CBF01221A6013
:10806800704700BF9CE7032098E7032094E70320AC
:1080780090E703208CE7032088E7032084E70320A8
:1080880080E70320184B1A68D1075CBF01221A60E9
:10809800164B1A68D2075CBF01221A60144B1A6883
:1080A800D0075CBF01221A60124B1A68D1075CBF67
:1080B80001221A60104B1A68D2075CBF01221A60AD
:1080C8000E4B1A68D0075CBF01221A600C4B1A6865
:1080D800D1075CBF01221A600A4B1A68D2075CBF3D
:1080E80001221A60704700BFBCE70320B8E70320ED
:1080F800B4E70320B0E70320ACE70320A8E7032098
:10810800A4E70320A0E70320244B1A68D0075CBF2C
:1081180001221A60224B1A68D1075CBF01221A603B
:10812800204B1A68D2075CBF01221A601E4B1A68DE
:10813800D0075CBF01221A601C4B1A68D1075CBFCC
:1081480001221A601A4B1A68D2075CBF01221A6012
:10815800184B1A68D0075CBF01221A60164B1A68C0
:10816800D1075CBF01221A60144B1A68D2075CBFA2
:1081780001221A60124B1A68D0075CBF01221A60EC
:10818800104B1A68D1075CBF01221A600E4B1A689F
:10819800D2075CBF01221A60704700BFECE70320DA
:1081A800E8E70320E4E70320E0E70320DCE7032017
:1081B800D8E70320D4E70320D0E70320CCE7032047
:1081C800C8E70320C4E70320C0E7032010B5054C27
:1081D80013462CB10A4601460220AFF3008010BDB9
:1081E800204610BD0000000010B50139024490423D
:1081F80007D010F8013B11F8014FA342F7D0181B24
:1082080010BD002010BD10B5431E0A44914204D091
:1082180011F8014B03F8014FF8E710BD884210B57B
:1082280001EB020301D8421E0BE09842FBD28118F1
:10823800D21AD34204D013F8014D01F8014DF8E7E2
:1082480010BD994204D011F8014B02F8014FF8E72C
:1082580010BD02440346934202D003F8011BFAE71B
:108268007047000038B5124B1C68A36B0546D3B99C
:108278001820FCF7A5FB43F20E33A06303804AF6EF
:10828800CD33438041F2342383804EF26D63C38043
:108298004DF6EC630381052343810B23838101227F
:1082A8000023C0E90423A36B00221D615A6138BD75
:1082B80044D90320C9B2034610F8012B1AB19142E0
:1082C800F9D11846704700290CBF1846002070479E
:1082D80010B50446FFF7EEFF18B9204600F00CF879
:1082E800204410BD10F8012B11F8013B012A28BFCA
:1082F8009A42F7D0D01A7047034613F8012B002A88
:10830800FBD1181A0138704730B582B1451E0139C2
:1083180015F8013F11F8014FA34206D1EC4314446C
:10832800E04201D0002BF3D11C46181B30BD10468B
:1083380030BD38B503460D4641B1002429461846DC
:10834800FFF7B8FF30B1431C0446F7E7BDE83840F3
:10835800FFF7B0BF204638BD2DE9F04780464048BA
:10836800D0F800900F463D4615F8014B09EB040084
:10837800407800F0080000F0FF0608B12F46F2E749
:108388002D2C03D1BD1C7C78012603E02B2C04BFC7
:108398007C78BD1C13B1102B0AD15BE0302C57D16F
:1083A800287800F0DF0058284DD16C78102302356A
:1083B800002E14BF4FF0004C6FF0004C0027BCFBA0
:1083C800F3FA384603FB1ACC09EB040E9EF801E0D9
:1083D8001EF0040F01D0303C0BE01EF0030E1BD042
:1083E800BEF1010F0CBF4FF0370E4FF0570ECEEB1A
:1083F8000404A34210DDB7F1FF3F0AD0504506D868
:1084080001D1644503DC03FB0040012701E04FF084
:10841800FF3715F8014BD7E77B1C0CD1002E4FF026
:10842800220314BF4FF000406FF00040C8F800303E
:108438002AB9BDE8F08706B1404272B107B1691E9A
:108448001160BDE8F0873024002BB1D10823AFE7D5
:108458000A23ADE7302CA3D0AAE7BDE8F08700BF18
:10846800E0D8032013460A46014602480068FFF791
:1084780073BF00BF44D903201D400D0059400D00B3
:1084880085400D0089400D0000000000000000003C
:10849800000000000000000000000000A5400D00E2
:1084A800C9400D000000000000000000D5400D008C
:1084B80009410D00F1670D00CB400D005363616E5B
:1084C8006E696E6720666F7220626561636F6E7396
:1084D8002E2E2E00466F756E643A2025690053656E
:1084E80072766963657320417661696C61626C6557
:1084F8003A202569004D61646520636F6E6E65637F
:1085080074696F6E20746F20626561636F6E2E00F0
:1085180043616E6E6F7420636F6E6E656374207452
:108528006F20626561636F6E2E00466F756E642002
:108538006D61746368696E672073657276696365D7
:108548002E20436F6E6E656374696E672E2E2E0043
:1085580031303733363761662D383334612D343650
:1085680039302D626663342D3133336336653663B3
:1085780061366534000000000000000000000000C3
:108588001B4A0D00214A0D00715C0D004B4A0D007D
:108598001D4A0D000000000000000000154A0D00F3
:1085A8002F4A0D005D5E0D004F4A0D00174A0D0061
:1085B80000000000000000000F4A0D003D4A0D00B9
:1085C80087520D00534A0D00114A0D007BE32774B2
:1085D8007BF815ACDD49A913000072F5776972695B
:1085E8006E672E626C6500537461727420646973DF
:1085F800636F766572696E67207365727669636505
:10860800732E00537461727420646973636F7665A6
:1086180072696E67206368617261637465726973F9
:10862800746963732E0068616C5F626C655F676173
:1086380074745F636C69656E745F646973636F7685
:1086480065725F616C6C5F736572766963657328C8
:1086580029206661696C65643B202564004E657756
:10866800207065726970686572616C20636F6E6EE8
:1086780065637465642E00000000000000000000BF
:1086880029600D001F600D0015600D000B600D00C6
:10869800FF5F0D00F35F0D00E75F0D00DF5F0D006A
:1086A800D55F0D00CB5F0D008D760D00000000003A
:1086B8000000000049600D0093600D006B600D0024
:1086C8004B600D0073600D007B600D0083600D0032
:1086D8008B600D000000000000000000DD600D0050
:1086E800CD600D00CF600D00302E300066616C73D8
:1086F800650074727565002575002567006E756CD8
:108708006C0075253034780000000000000000007F
:10871800AD650D00D3650D0087650D00DF610D00A7
:108728000000000000000000256D0D00396D0D00EF
:108738005D660D008F650D00000000000000000060
:10874800A9650D00EF650D003D6C0D00FD650D0080
:1087580066006C6E00666E00636F64650064657425
:1087680061696C000D0A00253031307520005D20EC
:10877800002C200028293A2000205B00636F6465E4
:10878800203D200064657461696C73203D2000629F
:108798006175640053657269616C00536572696143
:1087A8006C31007479706500706172616D00636D81
:1087B8006400696400686E64007374726D006669B1
:1087C8006C74006C766C0061646448616E646C65FE
:1087D800720072656D6F766548616E646C657200D3
:1087E800656E756D48616E646C657273004A534FAF
:1087F8004E53747265616D4C6F6748616E646C6549
:108808007200617070006E6F6E65007472616365EE
:1088180000696E666F007761726E006572726F72C2
:108828000070616E696300616C6C000000000000FC
:1088380000000000F96C0D00116D0D00F1670D00CE
:10884800CB400D000000000000000000AB650D00EB
:10885800E1650D00ED730D0091650D00000000004D
:108868000000000023750D0019750D000F750D002F
:1088780005750D00F9740D00ED740D00E1740D001F
:10888800D9740D00CF740D00C5740D008D760D00E0
:10889800000000000000000025760D002F760D0076
:1088A80039760D0043760D004D760D0059760D0092
:1088B80065760D0071760D0079760D0083760D00D2
:1088C8008D760D000000000000000000D1780D003A
:1088D800D3780D005A00252B3033643A2530327591
:1088E8000025592D256D2D25645425483A254D3AE6
:1088F8002553257A0061736374696D650000000073
:108908000000000000000000657A0D00B57A0D0037
:10891800C37A0D006D770D00797A0D009B7A0D00F2
:10892800877A0D00AF7A0D00677A0D006B7A0D001B
:108938000000000000000000817B0D00D17B0D00CD
:10894800DF7B0D006D770D00BD7B0D00837B0D0077
:10895800997B0D00CB7B0D00AF7B0D007D7B0D005F
:108968000000000000000000F37C0D00E97C0D0011
:10897800DF7C0D00957C0D00D37C0D00C77C0D00BD
:10898800BB7C0D00B37C0D00A97C0D009F7C0D0005
:108998008D760D0000002020202020202020202877
:1089A800282828282020202020202020202020209F
:1089B80020202020202088101010101010101010D7
:1089C8001010101010100404040404040404040417
:1089D8001010101010101041414141414101010196
:1089E800010101010101010101010101010101016F
:1089F800011010101010104242424242420202027C
:108A0800020202020202020202020202020202023E
:108A180002101010102000000000000000000000EC
:108A2800000000000000000000000000000000003E
:108A3800000000000000000000000000000000002E
:108A4800000000000000000000000000000000001E
:108A5800000000000000000000000000000000000E
:108A680000000000000000000000000000000000FE
:108A780000000000000000000000000000000000EE
:108A880000000000000000000000000000000000DE
:108A980000000000000000000000000000000000CE
:108AA80000000000000000000000000000000000BE
:108AB80000000000000000000000000000000000AE
:108AC800000000000000000000000000000000009E
:108AD800000000000000000000000000000000008E
:108AE800000000000000000000000000000000007E
:108AF800000000000000000043000000F5430D00E6
:108B0800A95F0D0035600D00B5740D00D9750D0015
:108B180059770D00B5780D00397A0D00517A0D009E
:108B2800FD7C0D00C17E0D00457F0D0009800D0004
:088B38008D800D0011810D007C
:108B400054880D0048870D00FD880D009D890D009B
:108B500000000000A08A0D00C08A0D00E08A0D0010
:108B60000000000000000000000000000000000005
:108B7000008B0D000000000000000000000000005D
:108B800000000000000000000000000000000000E5
:108B900000000000000000000000000000000000D5
:108BA00000000000000000000000000000000000C5
:048BB000E4D80320E2
:108BB400FFFFFFFF00000102030405060708090A7E
:108BC4000B0C0D0E0F101112131415161718191A79
:088BD4001B1C1D1E1F202800C0
:048BDC007856341281
:04000003D0004018D1
:00000001FF
